:400000000080002011000000390200003902000008B5044B1A6803F53F5302331A6000F025F900BFFA46004010B5054C237833B9044B13B10448AFF300800123237010BDE3
:400040008881FF1F0000000010140000084B10B51BB108480849AFF300800848036803B910BD074B002BFBD0BDE81040184700BF00000000101400008C81FF1F0881FF1FF9
:400080000000000008B500F0C5FC00F0B7FC10F0010FFAD000F0D0FC0028FBD000F0C6FC014B187008BD00BFBC81FF1F08B500F0C3FC0028FBD000F0B9FC08BD08B500F0CB
:4000C0004FFC044800F04CFC00F038FC10F0010FFAD008BD1814000010B50346044C20460821044A00F07CFD2046FFF7E7FF10BDB481FF1F1C14000008B500F017FD08BD86
:4001000008B500F007FD08BD08B562B600F090FB012000F041FB00F0C7FB00F0EDFC00F0F5FB00F02FFC00F093FC00F09FFC202000F0C8FB012000F0FBFB0020FFF7DCFF31
:400140000120FFF7DDFF052000F03EFA012000F01DFA034800F012FB0248FFF7AFFF08BD581400006414000010B504460020FFF7C7FF04F01F00FFF785FFFF2000F04AFC6B
:4001800000F03CFC10F0010FFAD0FFF78FFF034C20700120FFF7B4FF207810BDBE81FF1F38B504460D460020FFF7AAFF04F01F0040F02000FFF766FF2846FFF763FF012060
:4001C000FFF79EFF38BD00BF10B500F081FB10F0200FFAD000F084FB0F4C20700F48FFF76DFF0020FFF7C0FFFFF776FF00200921FFF7D6FF0A48FFF761FF0020FFF7B4FFB5
:40020000FFF76AFF0748FFF759FF207800F09CFB0548FFF753FF10BDBD81FF1F7414000080140000941400006014000008B5FFF76BFFFFF7C9FFFCE7FEE700BF08B5094B3A
:400240001A681044084BC31A802B02DC054B186005E000F085FC0C2303604FF0FF32104608BD00BF0C81FF1FC881FF1F08B5104E104D16E029686B68AC68002204E051F8AE
:40028000040B43F8040B0432A242F8D1E868002203E0002143F8041B04328242F9D11035013E002EE6D100F061FCFFF7BFFFFEE7010000005C15000008B5124A124B1A60BD
:4002C000124A136843F40073136000230AE0032B03D80F4A52F8231000E00E490E4A42F8231001332F2BF2D90C4B1A780C4B1A70094A0C4B1A6000F0B9F800220A4B1A6049
:4003000008BD00BF0004FA050CED00E014ED00E000000000390200000080FF1FBC7600400481FF1F08ED00E00081FF1FFEE700BFF0B40022174611E050F82760F3B226F0D8
:40034000FF0608E001EB420511F812406D78A5550132013BDBB2002BF4D101371B2FEBD9F0BC7047064B1B78DBB203F00701054A11701B09013213704422034B1A70704783
:40038000CF0100496E5800407658004008B50A46002100F01CFC08BD38B51722264B1A801823264A13704FF41C7102321180023213700622224B1A705222A3F580731A70C2
:4003C000204B1B78DBB2204A13704FF4E2621F4B1A8041F25122023B1A80002419250CE01B4B1B7803F0010343EA440404F003044FF4F07000F0D8F8013D0DB1032CEFD181
:4004000015B90320FFF792FF124A4FF48073138007231370002310490B7048200231087013700532137002220C4B1A700C4A137843F00303137038BD804000408240004092
:40044000004300400F010049A14600402242004025420040044000400640004001400040A243004008B500F0A7FB08BD70B572B6354A137843F00403137000240CE03349CA
:4004800063001A1952000A4423445B00C8589188FFF77CFF0134E4B2082CF0D900240BE02A49A3001A1952000A44906BD16B8022FFF7D8FF0134E4B2002CF1D04FF090406D
:4004C0002349FFF735FF234A137843F0020313701032137843F0020313701F4C237843F040032370A2F58632513A137843F0100313701A481A490A22FFF7B4FF19481A4990
:400500000822FFF7AFFF194819490822FFF7AAFF184819490822FFF7A5FF184A137843F008031370164E01253570FFF735FFC1233370144B1D70FFF715FF134821460E2265
:40054000FFF790FF70BD00BFE8460040BC1400007000004803500140A0430040C0510040B805004822510040C405004852510040CC05004862510040D4050048224300408E
:400580000048004004000840B0430040044A137803F0F703C00000F0080018431070704760510040000000000230800803D000BF01380046FCD17047EFF3108072B6704793
:4005C00080F31088704700BF10B5044605E0084B1868FFF7E9FFA4F50044B4F5004FF6D8034B586800FB04F0FFF7DEFF10BD00BF1081FF1F08B5034B1B7A03FB00F0FFF7A3
:40060000D3FF08BD1081FF1F10B50B4C237803F09F032370237803F0F00323702378184340F0100020700120FFF7E4FF237803F0EF03237010BD00BF2051004038B5054639
:400640000E4C237843F020032370237803F0BF0323700020FFF7CEFF237803F0F003237023781D4345F0100525700120FFF7C2FF237803F0EF03237038BD00BF2051004098
:4006800070B5354B1A7802F08002D2B21A7033490A7802F0F00242F00F020A7001310A7802F0F0020A7001310A7802F0F0020A701A7802F0DF021A701A7842F040021A703F
:4006C0004FF4CA760020FFF795FF234D2B7843F010032B700120FFF78DFF214B1C78E4B22B7803F0EF032B700020FFF783FF04F00804E4B22B7843F010032B700120FFF7B4
:4007000079FF2B7803F0EF032B7014B90A20FFF771FF013E0CB1002ED4D10F4A137803F0BF031370137803F08003DBB213700232137803F0F00313700132137803F0F003F9
:4007400043F00F0313700132137803F0F00343F00F03137070BD00BF20510040225100402151004010B50446FFF78AFF2009FFF765FF04F00F00FFF761FF10BD38B50546D4
:400780000078012404E0FFF7EDFF285D0134E4B20028F8D138BD00BF10B50446FFF770FF2009FFF731FF04F00F00FFF72DFF10BD08B52820FFF708FF0320FFF725FF0520C8
:4007C000FFF702FF0320FFF71FFF0F20FFF7FCFE0320FFF719FF0120FFF7F6FE0220FFF713FF0520FFF7F0FE0620FFF7D5FF0E20FFF7D2FF2C20FFF7CFFF0820FFF7CCFF5F
:400800000120FFF7C9FF0C20FFF7C6FF0320FFF7C3FF0520FFF7D8FE08BD00BF08B50C20FFF7BAFF0122014B1A7008BDA481FF1F08B5054B5B7823B9FFF7BAFF0122024B2E
:400840005A70FFF7EBFF08BDA481FF1F7222074B1A70202201331A7006225E3B1A70472210331A70002250331A7070478865004010B5FFF7A1FE04460A4A137843F02003E9
:4008800013700132137843F0100313700232137843F01003137000F087F82046FFF790FE10BD00BF9865004008B5054B1B7823B9FFF7CCFF0122024B1A70FFF7D9FF08BDBA
:4008C000A681FF1F014B1870704700BF89650040024B187800F07F00704700BF69650040084B1B78DBB213F0200F06D0064A1078C0B213F01E0F02D17047002070470020F5
:40090000704700BF696500404864004008B5FFF753FE064B1A7842F001021A701A7802F0FE021A70FFF74CFE08BD00BF98640040014B1870704700BF8B650040014B18783D
:40094000704700BF6B650040034B1B7813F0040FFAD1024B187070476B6500404A65004038B5074B1B782BB938BDFFF7EDFF0134A4B201E005460024285D0028F5D138BDD4
:40098000A681FF1F08B5FFF717FE064B1A7842F001021A701A7802F0FE021A70FFF710FE08BD00BF9A650040054A137843F0020313701032137843F002031370704700BF20
:4009C000A243004008B5FFF7F7FD0B4A137843F02003137002F58072137843F010031370A2F20112137843F010031370FFF7E8FD00F0A8F808BD00BF9A640040014B187831
:400A0000704700BF6A650040014B1878704700BF69640040034B1B7813F0040FFAD0024B187070476A6500404A640040014B1878704700BF5A640040044B1B7813F0200F24
:400A400001D0012070470020704700BF6964004001E0044B1B78044B1B7813F0200FF8D1704700BF5A6400406964004008B5FFF7A3FD064B1A7842F001021A701A7802F090
:400A8000FE021A70FFF79CFD08BD00BF9A64004008B501E00A4B1B780A4B1B7813F0200FF8D1FFF789FD084B1A7842F001021A701A7802F0FE021A70FFF782FD08BD00BFCB
:400AC0005A640040696400409A64004008B50F22074B1A70FFF7DCFFFFF790FFFFF794FF0023044A1370A2F20112137008BD00BF8A6400408A65004008B5054B1B7823B989
:400B0000FFF7E4FF0122024B1A70FFF75BFF08BDA881FF1F044A137803F07F03C001C0B203431370704700BF50510040044A137803F0FB03800000F0040018431070704715
:400B400050510040054A137843F0010313701032137843F001031370704700BFA2430040014B1868704700BF8081FF1F0E4B70B51E460E4C0025E41AA410A54204D056F861
:400B8000253098470135F8E700F0D6FC084B094C1E46E41AA4100025A54204D056F8253098470135F8E770BD4415000044150000441500004C15000010B5431E0A44914215
:400BC00004D011F8014B03F8014FF8E710BD03460244934202D003F8011BFAE7704700000CB430B5164B0C1E9DB01D6804DA8B232B604FF0FF301EE04FF40273ADF81430CA
:400C00000CBF234604F1FF33049307934FF6FF7302900690ADF81630284621AB02A9209A019300F069F8431CBCBF8B232B6014B1029B00221A701DB0BDE8304002B070476E
:400C40008081FF1F2DE9F0478E688246B3420C469046994640D38A8912F4906F3AD02568096902236F1A656905EB450595FBF3F57B1C4B449D4238BF1D4653050FD52946E2
:400C800000F030FB064698B121693A46FFF794FFA38923F4906343F08003A38113E02A4600F076FB064670B95046216900F0D6FA0C23CAF80030A3894FF0FF3043F0400397
:400CC000A381BDE8F08726613E4426604E466561ED1BA560B14500D24E4632462068414600F0A0FAA36800209B1BA36023681E442660BDE8F08700002DE9F0439DB00393B2
:400D00008B8906461C060D4690460CD50B6953B9402100F0E7FA2860286110B90C233360CCE040236B610023099320238DF8293030238DF82A3043461C4613F8012B1AB9F7
:400D4000B4EB08090FD002E0252AF5D1F8E73046294642464B46FFF775FF013000F0A980099B4B4409932378002B00F0A28000234FF0FF3204930793059206938DF85330B9
:400D80001A9304F101084446DFF8489121784846052200F039FA08F10108049B30B1C9EB00000122824013430493ECE7D80644BF20228DF85320190744BF2B228DF853207F
:400DC00022782A2A02D0079923460EE0039A0134111D12680391002ABBBF524243F0020307920792B8BF04930AE01C4622780133303A092A03D80A2000FB0121F5E7079131
:400E000023782E2B1AD163782A2B0AD1039B02341A1D1B680392002BB8BF4FF0FF3305930CE0611C00220C4623780131303B092B03D80A2000FB0232F5E70592DFF898801B
:400E400021784046032200F0DFF938B1049AC8EB00004023834013430493013421781A48062204F101088DF8281000F0CDF988B1164B33B9039B073323F007030833039304
:400E800013E003AB0093304604A92A46104BAFF3008007E003AB0093304604A92A460C4B00F092F8421C074603D0099B3B44099341E7AB895B0601D4099801E04FF0FF30A3
:400EC0001DB0BDE8F08300BF0C15000000000000450C000002150000081500002DE9F84391461F468A680B6906469342B8BF1346C9F8003091F843200C46DDF8208012B15D
:400F00000133C9F800302368990642BFD9F800300233C9F80030256815F006051CD094F843302268003318BF012392061FD5E118302081F843005A1C94F845102244023377
:400F400082F8431013E03046394604F119020123C047013007D00135E368D9F800209B1A9D42F0DBDBE74FF0FF30BDE8F8833046394604F14302C0470130F4D02268D9F8D2
:400F80000050E36802F00602042A08BF5D1B2269A3680CBF25EAE57500259342C4BF9B1AED184FF00009A9450ADA3046394604F11A020123C0470130D5D009F10109F2E730
:400FC0000020BDE8F88300002DE9FF410C461746227E98466E2A06460A9B01F1430100F0B08012D8632A23D00AD8002A00F0BD80582A40F0CC8084F84520DFF804E257E0D9
:40100000642A1ED0692A1CD0C1E0732A00F0B18009D86F2A2ED0702A40F0B980226842F0200222603FE0752A24D0782A3BD0AEE01A6804F14205111D1960136884F84230C0
:40104000A9E020681A6810F0800F02D0101D186008E010F0400F02F10400186002D0B2F9003000E01368002B3EDA2D225B4284F8432039E020681A6810F0800F02D0101D6A
:40108000186007E010F0400F02F10400186001D0138800E01368227EDFF864E16F2A0CBF08220A221CE07822DFF858E184F845202268186812F0800F00F104051D6003D169
:4010C000550601D5038800E00368D00744BF42F0200222601BB9226822F0200222601022002084F8430002E0DFF814E10A226568002DA8BF2068A560A4BF20F00400206055
:4011000003B965B10D46B3FBF2F002FB10331EF8033005F8013D03460028F4D100E00D46082A0BD12368DA0708D5236962689A42DEBF302305F8013C05F1FF35491B21610A
:401140002EE025681A6815F0800F606903D0151D1D60136808E015F0400F02F104051D60136801D0188000E01860002323610D4616E01A68111D1960156800212846626818
:4011800000F042F808B1401B6060636804E004F1420584F8422001232361002384F84330CDF800803046214603AA3B46FFF796FE013002D14FF0FF301FE0304639462A46FE
:4011C0002369C0470130F5D023689B0705D4E068039B9842B8BF18460FE00025E368039A9B1A9D42F3DA3046394604F119020123C0470130DED00135F0E704B0BDE8F08188
:40120000131500002415000010B5C9B202449042034605D01C7801308C42F8D1184610BD002010BD814210B501EB020301D3421E0BE09842FBD28118D21AD34204D013F8AB
:40124000014D01F8014DF8E710BD994204D011F8014B02F8014FF8E710BD000030B500293CD051F8042C0B1F1D49002AB8BF9B180A680C4612B95A600B6030BD93420DD267
:4012800019685818904201BF5A5852181A60426823605A6030BD994203D80A4651680029F9D1146815199D420AD11B682344D0188842136012D10868034413604B680CE070
:4012C00002D90C23036030BD1C681819884201BF08684968001918605960536030BD00BFB081FF1F70B5CC1C24F0030408340C2C38BF0C24002C064603DA0C233360002042
:4013000070BD8C42F9D3204A136810461946A1B10A68121B0ED40B2A03D90A608B188C501FE08B420BBF5A684A6802605A6018BF0B4616E00B464968E9E7144D2B681BB9A1
:40134000304600F04BF828603046214600F046F8421C0346D1D0C51C25F0030585420AD11C6003F10B001A1D20F00700821A0AD05142995070BD3046E91A00F02FF80130A0
:40138000BBD02B46ECE770BDB081FF1FAC81FF1FF8B5074615460E4621B91146BDE8F840FFF7A0BF1AB9FFF759FF2846F8BD00F025F8A8420ED238462946FFF793FF0446B1
:4013C00050B131462A46FFF7F7FB38463146FFF745FF01E03046F8BD2046F8BD38B5064C0023054608462360FEF728FF431C02D1236803B12B6038BDC081FF1F51F8040C84
:401400000028BEBF091851F8043CC0180438704700000000202000000A0D0000257500007072696E74696E672072782062756666657200007265636569766564000000004B
:40144000646F6E65207072696E74696E67207278206275666665720057656C636F6D652100000000496E697469616C697A696E670000000052656164696E672E2E2E00007B
:4014800052656164696E6720616761696E2E2E2E000000004563686F2E2E2E0073746174757320627974653A20000000726563656976656420627974650000000051004041
:4014C0002000305100402000F0510040100000000140000A800A0140800500140140000800400140000A004C014000020050014020000000000A0140380500488000000047
:401500004300232D302B2000686C4C006566674546470030313233343536373839414243444546003031323334353637383961626364656600000000F8B500BFF8BC08BC91
:401540009E4670474D000000B9020000F8B500BFF8BC08BC9E46704729000000701500000881FF1F80000000400000000000000000000000C881FF1F0000C05D80BB000075
:4015800030000000006CDC0200000000000000000000000000000000000000000000000000000000000000000015000000000000000000000000000000000000000000009C
:4015C000000000000000000000000000000000000000000000000000000000000000000000000000000000002081FF1F00000000000000000000000000000000000000002C
:4016000000000000000000000000000000000000000000000000000000000000000000000000000000000000000000000000000000000000000000000000000000000000AA
:40164000000000000000000000000000000000000000000000000000000000000000000000000000000000000000000000000000000000000000000000000000000000006A
:40168000000000000000000000000000000000000000000000000000000000000000000000000000000000000000000000000000000000000000000000000000000000002A
:4016C00000000000000000000000000000000000000000000000000000000000000000000000000000000000000000000000000000000000000000000000000000000000EA
:020000040003F7
:0200000480007A
:400000000352004001640040036500405D08014046090140110A01403C0B0140020D0140011501400117014046180140491901405B1A01404F1B0140034001400241014019
:400040000242014002430140024401400245014002460140014701400448014003490140014C0140114D014006500140015101402948604061408A0F887289388B0F00FF44
:400080000305040C08040B040C0812B31401170218031C42204F2290264028F32A0C2C4C2EA3308C3106320F347C35013AAA3F014024410342054401450E460C480549FFC0
:4000C0004AFF4BFF4C624DA04EF04F41500C580459045A045C115D015F016640670269106A306B106D106E106F128042820889038A808B0C8C8D8F08900D92809462950AE0
:4001000096149704984099039B049C029E0DA011A222A48DA88DA903AB04AC8DAF05B070B480B50FB60FBA82BB20BE10D440D804D904DB04DC10DF01008001020304040132
:400140000626081009040A410B080D0A0E080F0110081104128114011680171819021A011B121C031E221F112008211027482B093020320836143710384039203C203F0183
:400180004420450247504E024F045740625063208821910492C093099440978099059A519B249D12A048A104A288A404A620A70BB148C0FBC2FFC4FFCA0CCC46CEACD0F04F
:4001C000D210D80E8303850187068F0C950C97039B08A901AB0EB30FBB08D608D904DB04DC10DD90DF010090010A054006010801090C0A400B021028128218141A80210853
:40020000228226082720280929022A042F08310832023340362839143A013C483F0240044108430249044A044B825140525453045C8061106701686869146A406B40714089
:400240008C1C8D418E848F049880C00FC20DC40FCA2FCC6BCED7D007D20CD610D8149880B480E602E601011002600508066008600C600F01113E142A1611186119261A060D
:400280001B181C541E091F0122602304249F253C2702289F29182C802D382F063080311C32183301340735203660370239803F1456025712580459045B045C115D105F0117
:4002C0008402860C88308A448C248E40944096309A019E01A440A870AA08AC50B27CB401B602BE50D418D604D804DB04DC01DD10DF0100400108030805200690070108046D
:4003000009400B040D080E080F0112211320144015401714180619081C201D0A1E092540260A27482C402EA02F113520361137413A103B203E0A3F80444045025A015F085C
:40034000608462406D406F14762E808088018A5891209280932794409780981099079B209C019D109EA6A104A291A340A430A50AA626A709C0F7C2E7C4F7CAF0CCB0CED016
:40038000D641D80D0049029604020504060D070313021CE01D0520332104224C2303245526AA3103340F36F0370438803A203F404021410346C047BE483849FF4AFF4BFF38
:4003C0004EF04F44500C5409580459045A045B045D015F0166C06A406B02830184C486288A408EC0940E950196609B019C109E22A401A701A80EA901AAA0B018B101B2E037
:40040000B401B606B882BA08BE50BF01C001C504C9FFCA07CBFFCC40CD20CEF0CF05D008D401D604D804D904DA04DB04DC01DD11DF01E040E1A8E240E32000040102046028
:4004400007200A020E200F02110C128014041528180419101A021C401D801E281F0821022301278029022C202F08310232803404372039043E023F024110420243084580CC
:400480004C104E204F02502051045201581059055A805E195F806301674080208210874089048A018D02912092809440981099079B209C049D109E01A104A280A420A62091
:4004C000A709B340B401C0ECC2A1C46CCA61CC69CE82D01ED6FFD88832403620CC309680A6209680A6209680A6200220C008B620EA088F10E008A31082409680A620E6804A
:400500008620A620E640A3100B10520263207C408E0290409710A310B310B440C208D401D802DE04E408E802EE01000301010C030D0110031C03000B569A090084980002C1
:400540000102009884000000043880C00A2110D800000000609A000007FC380384020000801304640498000208E07F0F800000130800000A000011003406200005BEFD0C24
:400580001FFFFFFF2200F008040000000000022404040404000000010000C00040011011C00100114001400100000000000000000000000000000000400000404000400054
:4005C00000000000007F7F000000000010CCCC00480000000108080000000000000000000000000000000000000000000000000000000000000000000000000000000000FC
:4006000000000000000000000000000000000000000000000000000000000000000000000000000000000000000000000000000000000000000000000000000000000000BA
:40064000000000000000000000000000000000000000000000000000000000000000000000000000000000000000000000000000000000000000000000000000000000007A
:40068000000000000000000000000000000000000000000000000000000000000000000000000000000000000000000000000000000000000000000000000000000000003A
:4006C00000000000000000000000000000000000000000000000000000000000000000000000000000000000000000000000000000000000000000000000000000000000FA
:0200000490006A
:0400000000004005B7
:0200000490105A
:04000000BC90ACAF55
:0200000490303A
:02000000B25CF0
:0200000490402A
:4000000000000000000000000000000000000000000000000000000000000000000000000000000000000000000000000000000000000000000000000000000000000000C0
:400040000000000000000000000000000000000000000000000000000000000000000000000000000000000000000000000000000000000000000000000000000000000080
:400080000000000000000000000000000000000000000000000000000000000000000000000000000000000000000000000000000000000000000000000000000000000040
:4000C0000000000000000000000000000000000000000000000000000000000000000000000000000000000000000000000000000000000000000000000000000000000000
:0200000490501A
:0C00000000012E12306900012E1BE2C529
:00000001FF