:400000000080002011000000550100005501000008B5044B1A6803F53F5302331A6000F09BF800BFFA46004010B5054C237833B9044B13B10448AFF300800123237010BD38
:400040002081FF1F00000000E00A0000084B10B51BB108480849AFF300800848036803B910BD074B002BFBD0BDE81040184700BF00000000E00A00002481FF1F0881FF1F3D
:400080000000000010B500F0C7FB10F0200FFAD000F0CAFB0446012000F0F2FA204600F049FB054800F0DEFA204600F043FB204600F0EEFBE7E700BFE40A000008B500F02A
:4000C000F3FB044800F0F0FB00F0DCFB10F0010FFAD008BDE80A000008B500F0ADFC08BD08B500F09DFC08BD08B562B600F014FB012000F0C5FA00F07BFB00F083FC00F004
:40010000A9FB00F0E3FB00F029FC00F035FC202000F07CFB012000F0AFFB0020FFF7DCFF0120FFF7DDFF052000F0C2F9012000F0A3F9034800F096FA0248FFF7BFFF08BDC6
:40014000280B0000340B000008B5FFF7CDFFFFF799FF00BFFEE700BF08B5104E104D16E029686B68AC68002204E051F8040B43F8040B0432A242F8D1E868002203E00021B6
:4001800043F8041B04328242F9D11035013E002EE6D100F06BFCFFF7D7FFFEE701000000780C000008B5124A124B1A60124A136843F40073136000230AE0032B03D80F4AD8
:4001C00052F8231000E00E490E4A42F8231001332F2BF2D90C4B1A780C4B1A70094A0C4B1A6000F0B9F800220A4B1A6008BD00BF0004FA050CED00E014ED00E0000000006C
:40020000550100000080FF1FBC7600400481FF1F08ED00E00081FF1FFEE700BFF0B40022174611E050F82760F3B226F0FF0608E001EB420511F812406D78A5550132013B36
:40024000DBB2002BF4D101371B2FEBD9F0BC7047064B1B78DBB203F00701054A11701B09013213704422034B1A707047CF0100496E5800407658004008B50A46002100F002
:4002800026FC08BD38B51722264B1A801823264A13704FF41C7102321180023213700622224B1A705222A3F580731A70204B1B78DBB2204A13704FF4E2621F4B1A8041F2CE
:4002C0005122023B1A80002419250CE01B4B1B7803F0010343EA440404F003044FF4F07000F0D6F8013D0DB1032CEFD115B90320FFF792FF124A4FF4807313800723137070
:40030000002310490B7048200231087013700532137002220C4B1A700C4A137843F00303137038BD8040004082400040004300400F010049A146004022420040254200408F
:40034000044000400640004001400040A243004008B500F0B1FB08BD70B572B6354A137843F00403137000240CE0334963001A1952000A4423445B00C8589188FFF77CFF6D
:400380000134E4B2082CF0D900240BE02A49A3001A1952000A44906BD16B8022FFF7D8FF0134E4B2002CF1D04FF090402349FFF735FF234A137843F00203137010321378FA
:4003C00043F0020313701F4C237843F040032370A2F58632513A137843F0100313701A481A490A22FFF7B4FF19481A490822FFF7AFFF194819490822FFF7AAFF184819498B
:400400000822FFF7A5FF184A137843F008031370164E01253570FFF735FFC1233370144B1D70FFF715FF134821460E22FFF790FF70BD00BFE8460040100C000070000048CF
:4004400003500140A0430040C0510040B805004822510040C405004852510040CC05004862510040D4050048224300400048004004000840B0430040044A137803F0F70329
:40048000C00000F00800184310707047605100400230800803D000BF01380046FCD17047EFF3108072B6704780F31088704700BF10B5044605E0084B1868FFF7E9FFA4F5A2
:4004C0000044B4F5004FF6D8034B586800FB04F0FFF7DEFF10BD00BF0C81FF1F08B5034B1B7A03FB00F0FFF7D3FF08BD0C81FF1F10B50B4C237803F09F032370237803F0B8
:40050000F00323702378184340F0100020700120FFF7E4FF237803F0EF03237010BD00BF2051004038B505460E4C237843F020032370237803F0BF0323700020FFF7CEFF49
:40054000237803F0F003237023781D4345F0100525700120FFF7C2FF237803F0EF03237038BD00BF2051004070B5354B1A7802F08002D2B21A7033490A7802F0F00242F070
:400580000F020A7001310A7802F0F0020A7001310A7802F0F0020A701A7802F0DF021A701A7842F040021A704FF4CA760020FFF795FF234D2B7843F010032B700120FFF7D5
:4005C0008DFF214B1C78E4B22B7803F0EF032B700020FFF783FF04F00804E4B22B7843F010032B700120FFF779FF2B7803F0EF032B7014B90A20FFF771FF013E0CB1002ECB
:40060000D4D10F4A137803F0BF031370137803F08003DBB213700232137803F0F00313700132137803F0F00343F00F0313700132137803F0F00343F00F03137070BD00BFFC
:4006400020510040225100402151004010B50446FFF78AFF2009FFF765FF04F00F00FFF761FF10BD38B505460078012404E0FFF7EDFF285D0134E4B20028F8D138BD00BF9D
:4006800010B50446FFF770FF2009FFF731FF04F00F00FFF72DFF10BD08B52820FFF708FF0320FFF725FF0520FFF702FF0320FFF71FFF0F20FFF7FCFE0320FFF719FF012082
:4006C000FFF7F6FE0220FFF713FF0520FFF7F0FE0620FFF7D5FF0E20FFF7D2FF2C20FFF7CFFF0820FFF7CCFF0120FFF7C9FF0C20FFF7C6FF0320FFF7C3FF0520FFF7D8FE6D
:4007000008BD00BF08B50C20FFF7BAFF0122014B1A7008BD3C81FF1F08B5054B5B7823B9FFF7BAFF0122024B5A70FFF7EBFF08BD3C81FF1F00B585B000238DF80E300922E4
:4007400010E0134BA3FB0013DB08194603EB83035B00C31A303304A8104400F80C3C0846013AD2B20928ECD8094BA3FB0013DB0803EB83035B00C31A303304A9114401F8F5
:400780000C3C01AB9818FFF76DFF05B05DF804FBCDCCCCCC7222074B1A70202201331A7006225E3B1A70472210331A70002250331A7070478865004010B5FFF771FE044681
:4007C0000A4A137843F0200313700132137843F0100313700232137843F01003137000F087F82046FFF760FE10BD00BF9865004008B5054B1B7823B9FFF7CCFF0122024B93
:400800001A70FFF7D9FF08BD3E81FF1F014B1870704700BF89650040024B187800F07F00704700BF69650040084B1B78DBB213F0200F06D0064A1078C0B213F01E0F02D1AE
:400840007047002070470020704700BF696500404864004008B5FFF723FE064B1A7842F001021A701A7802F0FE021A70FFF71CFE08BD00BF98640040014B1870704700BFBC
:400880008B650040014B1878704700BF6B650040034B1B7813F0040FFAD1024B187070476B6500404A65004038B5074B1B782BB938BDFFF7EDFF0134A4B201E005460024F1
:4008C000285D0028F5D138BD3E81FF1F08B5FFF7E7FD064B1A7842F001021A701A7802F0FE021A70FFF7E0FD08BD00BF9A650040054A137843F0020313701032137843F041
:4009000002031370704700BFA243004008B5FFF7C7FD0B4A137843F02003137002F58072137843F010031370A2F20112137843F010031370FFF7B8FD00F08AF808BD00BF8B
:400940009A640040014B1878704700BF6A650040014B1878704700BF6964004001E0044B1B78044B1B7813F0200FF8D1704700BF5A6400406964004008B5FFF791FD064BC6
:400980001A7842F001021A701A7802F0FE021A70FFF78AFD08BD00BF9A64004008B501E00A4B1B780A4B1B7813F0200FF8D1FFF777FD084B1A7842F001021A701A7802F09E
:4009C000FE021A70FFF770FD08BD00BF5A640040696400409A64004008B50F22074B1A70FFF7DCFFFFF7AEFFFFF7B2FF0023044A1370A2F20112137008BD00BF8A64004088
:400A00008A65004008B5054B1B7823B9FFF7E4FF0122024B1A70FFF779FF08BD4081FF1F044A137803F07F03C001C0B203431370704700BF50510040044A137803F0FB03BB
:400A4000800000F0040018431070704750510040054A137843F0010313701032137843F001031370704700BFA24300400E4B70B51E460E4C0025E41AA410A54204D056F8BD
:400A8000253098470135F8E700F0E4F8084B094C1E46E41AA4100025A54204D056F8253098470135F8E770BD600C0000600C0000600C0000680C000010B5431E0A449142C0
:400AC00004D011F8014B03F8014FF8E710BD03460244934202D003F8011BFAE77047000000000000202000000A0D0000257500007072696E74696E672072782062756666C8
:400B000065720000726563656976656400000000646F6E65207072696E74696E67207278206275666665720057656C636F6D652100000000496E697469616C697A696E67EA
:400B4000000000006E7266526563656976650A0073656E64696E6720525F52585F5041594C4F414420636F6D6D616E640A00000066696E69736865642073656E64696E673B
:400B80000A00000073656E64696E6720525F52585F5041594C4F414420646174610A00006E726653656E640073656E64696E6720575F54585F5041594C4F414420636F6D99
:400BC0006D616E640A00000073656E64696E6720575F54585F5041594C4F414420646174610A000077616974696E6720666F7220535049204D617374657220527820464929
:400C0000464F206E6F7420656D7074790A000000005100402000305100402000F0510040100000000140000A800A0140800500140140000800400140000A004C0140000220
:400C40000050014020000000000A01403805004880000000F8B500BFF8BC08BC9E4670474D000000A5010000F8B500BFF8BC08BC9E46704729000000880C00000881FF1F1E
:400C80001800000028000000000000000000C05D80BB000030000000006CDC0200000000000000000000000000000000000000000000000000000000000000000000000022
:400CC00000000000000000000000000000000000000000000000000000000000000000000000000000000000000000000000000000000000000000000000000000000000F4
:400D000000000000000000000000000000000000000000000000000000000000000000000000000000000000000000000000000000000000000000000000000000000000B3
:400D40000000000000000000000000000000000000000000000000000000000000000000000000000000000000000000000000000000000000000000000000000000000073
:400D80000000000000000000000000000000000000000000000000000000000000000000000000000000000000000000000000000000000000000000000000000000000033
:020000040003F7
:0200000480007A
:400000000352004001640040036500405D08014046090140110A01403C0B0140020D0140011501400117014046180140491901405B1A01404F1B0140034001400241014019
:400040000242014002430140024401400245014002460140014701400448014003490140014C0140114D014006500140015101402948604061408A0F887289388B0F00FF44
:400080000305040C08040B040C0812B31401170218031C42204F2290264028F32A0C2C4C2EA3308C3106320F347C35013AAA3F014024410342054401450E460C480549FFC0
:4000C0004AFF4BFF4C624DA04EF04F41500C580459045A045C115D015F016640670269106A306B106D106E106F128042820889038A808B0C8C8D8F08900D92809462950AE0
:4001000096149704984099039B049C029E0DA011A222A48DA88DA903AB04AC8DAF05B070B480B50FB60FBA82BB20BE10D440D804D904DB04DC10DF01008001020304040132
:400140000626081009040A410B080D0A0E080F0110081104128114011680171819021A011B121C031E221F112008211027482B093020320836143710384039203C203F0183
:400180004420450247504E024F045740625063208821910492C093099440978099059A519B249D12A048A104A288A404A620A70BB148C0FBC2FFC4FFCA0CCC46CEACD0F04F
:4001C000D210D80E8303850187068F0C950C97039B08A901AB0EB30FBB08D608D904DB04DC10DD90DF010090010A054006010801090C0A400B021028128218141A80210853
:40020000228226082720280929022A042F08310832023340362839143A013C483F0240044108430249044A044B825140525453045C8061106701686869146A406B40714089
:400240008C1C8D418E848F049880C00FC20DC40FCA2FCC6BCED7D007D20CD610D8149880B480E602E601011002600508066008600C600F01113E142A1611186119261A060D
:400280001B181C541E091F0122602304249F253C2702289F29182C802D382F063080311C32183301340735203660370239803F1456025712580459045B045C115D105F0117
:4002C0008402860C88308A448C248E40944096309A019E01A440A870AA08AC50B27CB401B602BE50D418D604D804DB04DC01DD10DF0100400108030805200690070108046D
:4003000009400B040D080E080F0112211320144015401714180619081C201D0A1E092540260A27482C402EA02F113520361137413A103B203E0A3F80444045025A015F085C
:40034000608462406D406F14762E808088018A5891209280932794409780981099079B209C019D109EA6A104A291A340A430A50AA626A709C0F7C2E7C4F7CAF0CCB0CED016
:40038000D641D80D0049029604020504060D070313021CE01D0520332104224C2303245526AA3103340F36F0370438803A203F404021410346C047BE483849FF4AFF4BFF38
:4003C0004EF04F44500C5409580459045A045B045D015F0166C06A406B02830184C486288A408EC0940E950196609B019C109E22A401A701A80EA901AAA0B018B101B2E037
:40040000B401B606B882BA08BE50BF01C001C504C9FFCA07CBFFCC40CD20CEF0CF05D008D401D604D804D904DA04DB04DC01DD11DF01E040E1A8E240E32000040102046028
:4004400007200A020E200F02110C128014041528180419101A021C401D801E281F0821022301278029022C202F08310232803404372039043E023F024110420243084580CC
:400480004C104E204F02502051045201581059055A805E195F806301674080208210874089048A018D02912092809440981099079B209C049D109E01A104A280A420A62091
:4004C000A709B340B401C0ECC2A1C46CCA61CC69CE82D01ED6FFD88832403620CC309680A6209680A6209680A6200220C008B620EA088F10E008A31082409680A620E6804A
:400500008620A620E640A3100B10520263207C408E0290409710A310B310B440C208D401D802DE04E408E802EE01000301010C030D0110031C03000B569A090084980002C1
:400540000102009884000000043880C00A2110D800000000609A000007FC380384020000801304640498000208E07F0F800000130800000A000011003406200005BEFD0C24
:400580001FFFFFFF2200F008040000000000022404040404000000010000C00040011011C00100114001400100000000000000000000000000000000400000404000400054
:4005C00000000000007F7F000000000010CCCC00480000000108080000000000000000000000000000000000000000000000000000000000000000000000000000000000FC
:4006000000000000000000000000000000000000000000000000000000000000000000000000000000000000000000000000000000000000000000000000000000000000BA
:40064000000000000000000000000000000000000000000000000000000000000000000000000000000000000000000000000000000000000000000000000000000000007A
:40068000000000000000000000000000000000000000000000000000000000000000000000000000000000000000000000000000000000000000000000000000000000003A
:4006C00000000000000000000000000000000000000000000000000000000000000000000000000000000000000000000000000000000000000000000000000000000000FA
:0200000490006A
:0400000000004005B7
:0200000490105A
:04000000BC90ACAF55
:0200000490303A
:0200000040F1CD
:0200000490402A
:4000000000000000000000000000000000000000000000000000000000000000000000000000000000000000000000000000000000000000000000000000000000000000C0
:400040000000000000000000000000000000000000000000000000000000000000000000000000000000000000000000000000000000000000000000000000000000000080
:400080000000000000000000000000000000000000000000000000000000000000000000000000000000000000000000000000000000000000000000000000000000000040
:4000C0000000000000000000000000000000000000000000000000000000000000000000000000000000000000000000000000000000000000000000000000000000000000
:0200000490501A
:0C00000000012E12306900012E18715A08
:00000001FF