:400000000080002011000000810200008102000008B5044B1A6803F53F5302331A6000F049F900BFFA46004010B5054C237833B9044B13B10448AFF300800123237010BD2F
:400040008881FF1F0000000058140000084B10B51BB108480849AFF300800848036803B910BD074B002BFBD0BDE81040184700BF00000000581400008C81FF1F0881FF1F69
:400080000000000008B500F093FC044800F090FC00F07CFC10F0010FFAD008BD5C14000010B50346044C20460821044A00F0BCFD2046FFF7E7FF10BDB481FF1F601400000B
:4000C00008B500F057FD08BD08B500F047FD08BD08B500F0D5FB012000F086FB00F00CFC00F02EFD00F03AFC00F074FC00F0D6FC00F0E2FC202000F00DFC012000F040FCC6
:400100000020FFF7DDFF0120FFF7DEFF052000F07FFA012000F05EFA034800F053FB0348FFF7B0FF08BD00BF9C140000A814000010B504460020FFF7C7FF04F01F0000F08B
:400140008FFC00F09FFC0028FBD0FF2000F088FC00F092FC074B1870FFF7A2FF00F08CFC054C2070FFF79CFF0120FFF7ADFF207810BD00BFBE81FF1FBD81FF1F38B5044633
:400180000D460020FFF7A0FF04F01F0040F0200000F066FC00F058FC10F0010FFAD0284600F05EFC01E000F079FC00F04DFC10F0010FF8D00120FFF787FF38BD08B50020E6
:4001C00000F008FA4FF4FA7000F022FA012000F001FA4FF4FA7000F01BFA002000F0FAF908BD00BF08B5FFF7E9FFFCE710B562B6FFF76EFF00F094FB10F0200FFAD000F0E9
:4002000097FB174C20701748FFF73CFF0020FFF78FFF1548FFF736FF11202178FFF7AEFF1248FFF72FFF1120FFF782FF012000F0DBFA0F4C207800F0D3FA0E48FFF722FFE7
:40024000207800F0A9FB00F0A1FB10F0010FFAD00948FFF717FF0948FFF714FFFFF7C2FFBC81FF1F84150000A0150000C4150000BD81FF1FDC150000E4150000E8150000B9
:40028000FEE700BF08B5094B1A681044084BC31A802B02DC054B186005E000F085FC0C2303604FF0FF32104608BD00BF0C81FF1FC881FF1F08B5104E104D16E029686B681C
:4002C000AC68002204E051F8040B43F8040B0432A242F8D1E868002203E0002143F8041B04328242F9D11035013E002EE6D100F061FCFFF77BFFFEE7010000009416000015
:4003000008B5124A124B1A60124A136843F40073136000230AE0032B03D80F4A52F8231000E00E490E4A42F8231001332F2BF2D90C4B1A780C4B1A70094A0C4B1A6000F0BA
:40034000B9F800220A4B1A6008BD00BF0004FA050CED00E014ED00E000000000810200000080FF1FBC7600400481FF1F08ED00E00081FF1FFEE700BFF0B40022174611E038
:4003800050F82760F3B226F0FF0608E001EB420511F812406D78A5550132013BDBB2002BF4D10137112FEBD9F0BC7047064B1B78DBB203F00701054A11701B0901321370B8
:4003C0004422034B1A707047CF0100496E5800407658004008B50A46002100F01CFC08BD38B51722264B1A801823264A1370672102321180023213700622234B1A705222E9
:40040000A3F580731A70214B1B78DBB2204A13704FF4E2621F4B1A8041F25122023B1A80002419250CE01C4B1B7803F0010343EA440404F003044FF4F07000F0D9F8013DD5
:400440000DB1032CEFD115B90320FFF793FF134A4FF48073138007231370002310490B7048200231087013700532137002220D4B1A700D4A137843F00303137038BD00BFE4
:400480008040004082400040004300400F010049A14600402242004025420040044000400640004001400040A243004008B500F0A7FB08BD70B572B6354A137843F0040397
:4004C000137000240CE0334963001A1952000A4423445B00C8589188FFF77CFF0134E4B2082CF0D900240BE02A49A3001A1952000A44906BD16B8022FFF7D8FF0134E4B21A
:40050000002CF1D04FF090402349FFF735FF234A137843F0020313701032137843F0020313701F4C237843F040032370A2F58632513A137843F0100313701A481A490A22C0
:40054000FFF7B4FF19481A490822FFF7AFFF194819490822FFF7AAFF184819490822FFF7A5FF184A137843F008031370164E01253570FFF735FFC1233370144B1D70FFF7BE
:4005800015FF134821460E22FFF790FF70BD00BFE8460040F41500004800004803500140A0430040C0510040480500482251004054050048525100405C050048625100404D
:4005C00064050048224300400048004004000840B0430040044A137803F0F703C00000F0080018431070704760510040000000000230800803D000BF01380046FCD170474E
:40060000EFF3108072B6704780F31088704700BF10B5044605E0084B1868FFF7E9FFA4F50044B4F5004FF6D8034B586800FB04F0FFF7DEFF10BD00BF1081FF1F08B5034B8A
:400640001B7A03FB00F0FFF7D3FF08BD1081FF1F10B50B4C237803F09F032370237803F0F00323702378184340F0100020700120FFF7E4FF237803F0EF03237010BD00BF69
:400680002051004038B505460E4C237843F020032370237803F0BF0323700020FFF7CEFF237803F0F003237023781D4345F0100525700120FFF7C2FF237803F0EF032370D4
:4006C00038BD00BF2051004070B5354B1A7802F08002D2B21A7033490A7802F0F00242F00F020A7001310A7802F0F0020A7001310A7802F0F0020A701A7802F0DF021A702A
:400700001A7842F040021A704FF4CA760020FFF795FF234D2B7843F010032B700120FFF78DFF214B1C78E4B22B7803F0EF032B700020FFF783FF04F00804E4B22B7843F0A8
:4007400010032B700120FFF779FF2B7803F0EF032B7014B90A20FFF771FF013E0CB1002ED4D10F4A137803F0BF031370137803F08003DBB213700232137803F0F003137098
:400780000132137803F0F00343F00F0313700132137803F0F00343F00F03137070BD00BF20510040225100402151004010B50446FFF78AFF2009FFF765FF04F00F00FFF755
:4007C00061FF10BD38B505460078012404E0FFF7EDFF285D0134E4B20028F8D138BD00BF08B5FFF7E3FF08BD10B50446FFF76CFF2009FFF72DFF04F00F00FFF729FF10BD39
:4008000008B52820FFF704FF0320FFF721FF0520FFF7FEFE0320FFF71BFF0F20FFF7F8FE0320FFF715FF0120FFF7F2FE0220FFF70FFF0520FFF7ECFE0620FFF7D5FF0E209F
:40084000FFF7D2FF2C20FFF7CFFF0820FFF7CCFF0120FFF7C9FF0C20FFF7C6FF0320FFF7C3FF0520FFF7D4FE08BD00BF08B50C20FFF7BAFF0122014B1A7008BDA481FF1F0D
:4008800008B5054B5B7823B9FFF7BAFF0122024B5A70FFF7EBFF08BDA481FF1F7222074B1A70202201331A700622623B1A70472210331A70002253331A707047896500409F
:4008C00010B5FFF79DFE04460A4A137843F0200313700132137843F0100313700132137843F01003137000F087F82046FFF78CFE10BD00BF9965004008B5054B1B7823B9F7
:40090000FFF7CCFF0122024B1A70FFF7D9FF08BDA681FF1F014B1870704700BF8A650040024B187800F07F00704700BF6A650040084B1B78DBB213F0200F06D0064A107887
:40094000C0B213F01E0F02D17047002070470020704700BF6A6500404A65004008B5FFF74FFE064B1A7842F001021A701A7802F0FE021A70FFF748FE08BD00BF9A65004031
:40098000014B1870704700BF8B650040014B1878704700BF6B650040034B1B7813F0040FFAD1024B187070476B6500404B65004038B5074B1B782BB938BDFFF7EDFF01344B
:4009C000A4B201E005460024285D0028F5D138BDA681FF1F08B5FFF713FE064B1A7842F001021A701A7802F0FE021A70FFF70CFE08BD00BF9B650040054A137843F002035A
:400A000013701032137843F002031370704700BFA243004008B5FFF7F3FD0A4A137843F020031370013A137843F0100313700232137843F010031370FFF7E6FD00F0A6F837
:400A400008BD00BF9A640040014B1878704700BF69640040014B1878704700BF6B640040034B1B7813F0040FFAD0024B18707047696400404A640040014B1878704700BF5A
:400A80005A640040044B1B7813F0200F01D0012070470020704700BF6B64004001E0044B1B78044B1B7813F0200FF8D1704700BF5A6400406B64004008B5FFF7A1FD064B11
:400AC0001A7842F001021A701A7802F0FE021A70FFF79AFD08BD00BF9A64004008B501E00A4B1B780A4B1B7813F0200FF8D1FFF787FD084B1A7842F001021A701A7802F03D
:400B0000FE021A70FFF780FD08BD00BF5A6400406B6400409A64004008B50F22064B1A70FFF7DCFFFFF790FFFFF794FF0023034A13700232137008BD8A6400408964004077
:400B400008B5054B1B7823B9FFF7E6FF0122024B1A70FFF75FFF08BDA881FF1F044A137803F07F03C001C0B203431370704700BF50510040044A137803F0FB03800000F0E9
:400B8000040018431070704750510040054A137843F0010313701032137843F001031370704700BFA2430040014B1868704700BF8081FF1F0E4B70B51E460E4C0025E41A48
:400BC000A410A54204D056F8253098470135F8E700F04EFD084B094C1E46E41AA4100025A54204D056F8253098470135F8E770BD7C1600007C1600007C1600008416000002
:400C000010B5431E0A44914204D011F8014B03F8014FF8E710BD03460244934202D003F8011BFAE7704700000CB430B5164B0C1E9DB01D6804DA8B232B604FF0FF301EE0E3
:400C40004FF40273ADF814300CBF234604F1FF33049307934FF6FF7302900690ADF81630284621AB02A9209A019300F069F8431CBCBF8B232B6014B1029B00221A701DB00B
:400C8000BDE8304002B070478081FF1F2DE9F0478E688246B3420C469046994640D38A8912F4906F3AD02568096902236F1A656905EB450595FBF3F57B1C4B449D4238BF32
:400CC0001D4653050FD5294600F030FB064698B121693A46FFF794FFA38923F4906343F08003A38113E02A4600F076FB064670B95046216900F0D6FA0C23CAF80030A3892D
:400D00004FF0FF3043F04003A381BDE8F08726613E4426604E466561ED1BA560B14500D24E4632462068414600F0A0FAA36800209B1BA36023681E442660BDE8F0870000B9
:400D40002DE9F0439DB003938B8906461C060D4690460CD50B6953B9402100F0E7FA2860286110B90C233360CCE040236B610023099320238DF8293030238DF82A304346F7
:400D80001C4613F8012B1AB9B4EB08090FD002E0252AF5D1F8E73046294642464B46FFF775FF013000F0A980099B4B4409932378002B00F0A28000234FF0FF320493079345
:400DC000059206938DF853301A9304F101084446DFF8489121784846052200F039FA08F10108049B30B1C9EB00000122824013430493ECE7D80644BF20228DF8532019074F
:400E000044BF2B228DF8532022782A2A02D0079923460EE0039A0134111D12680391002ABBBF524243F0020307920792B8BF04930AE01C4622780133303A092A03D80A2039
:400E400000FB0121F5E7079123782E2B1AD163782A2B0AD1039B02341A1D1B680392002BB8BF4FF0FF3305930CE0611C00220C4623780131303B092B03D80A2000FB0232AC
:400E8000F5E70592DFF8988021784046032200F0DFF938B1049AC8EB00004023834013430493013421781A48062204F101088DF8281000F0CDF988B1164B33B9039B073350
:400EC00023F007030833039313E003AB0093304604A92A46104BAFF3008007E003AB0093304604A92A460C4B00F092F8421C074603D0099B3B44099341E7AB895B0601D465
:400F0000099801E04FF0FF301DB0BDE8F08300BF44160000000000008D0C00003A160000401600002DE9F84391461F468A680B6906469342B8BF1346C9F8003091F84320C3
:400F40000C46DDF8208012B10133C9F800302368990642BFD9F800300233C9F80030256815F006051CD094F843302268003318BF012392061FD5E118302081F843005A1C29
:400F800094F845102244023382F8431013E03046394604F119020123C047013007D00135E368D9F800209B1A9D42F0DBDBE74FF0FF30BDE8F8833046394604F14302C04766
:400FC0000130F4D02268D9F80050E36802F00602042A08BF5D1B2269A3680CBF25EAE57500259342C4BF9B1AED184FF00009A9450ADA3046394604F11A020123C047013022
:40100000D5D009F10109F2E70020BDE8F88300002DE9FF410C461746227E98466E2A06460A9B01F1430100F0B08012D8632A23D00AD8002A00F0BD80582A40F0CC8084F86F
:401040004520DFF804E257E0642A1ED0692A1CD0C1E0732A00F0B18009D86F2A2ED0702A40F0B980226842F0200222603FE0752A24D0782A3BD0AEE01A6804F14205111D09
:401080001960136884F84230A9E020681A6810F0800F02D0101D186008E010F0400F02F10400186002D0B2F9003000E01368002B3EDA2D225B4284F8432039E020681A68D6
:4010C00010F0800F02D0101D186007E010F0400F02F10400186001D0138800E01368227EDFF864E16F2A0CBF08220A221CE07822DFF858E184F845202268186812F0800FE6
:4011000000F104051D6003D1550601D5038800E00368D00744BF42F0200222601BB9226822F0200222601022002084F8430002E0DFF814E10A226568002DA8BF2068A560C0
:40114000A4BF20F00400206003B965B10D46B3FBF2F002FB10331EF8033005F8013D03460028F4D100E00D46082A0BD12368DA0708D5236962689A42DEBF302305F8013CE3
:4011800005F1FF35491B21612EE025681A6815F0800F606903D0151D1D60136808E015F0400F02F104051D60136801D0188000E01860002323610D4616E01A68111D19609E
:4011C000156800212846626800F042F808B1401B6060636804E004F1420584F8422001232361002384F84330CDF800803046214603AA3B46FFF796FE013002D14FF0FF304C
:401200001FE0304639462A462369C0470130F5D023689B0705D4E068039B9842B8BF18460FE00025E368039A9B1A9D42F3DA3046394604F119020123C0470130DED0013584
:40124000F0E704B0BDE8F0814B1600005C16000010B5C9B202449042034605D01C7801308C42F8D1184610BD002010BD814210B501EB020301D3421E0BE09842FBD2811838
:40128000D21AD34204D013F8014D01F8014DF8E710BD994204D011F8014B02F8014FF8E710BD000030B500293CD051F8042C0B1F1D49002AB8BF9B180A680C4612B95A6053
:4012C0000B6030BD93420DD219685818904201BF5A5852181A60426823605A6030BD994203D80A4651680029F9D1146815199D420AD11B682344D0188842136012D108687D
:40130000034413604B680CE002D90C23036030BD1C681819884201BF08684968001918605960536030BD00BFB081FF1F70B5CC1C24F0030408340C2C38BF0C24002C064667
:4013400003DA0C233360002070BD8C42F9D3204A136810461946A1B10A68121B0ED40B2A03D90A608B188C501FE08B420BBF5A684A6802605A6018BF0B4616E00B4649683A
:40138000E9E7144D2B681BB9304600F04BF828603046214600F046F8421C0346D1D0C51C25F0030585420AD11C6003F10B001A1D20F00700821A0AD05142995070BD304613
:4013C000E91A00F02FF80130BBD02B46ECE770BDB081FF1FAC81FF1FF8B5074615460E4621B91146BDE8F840FFF7A0BF1AB9FFF759FF2846F8BD00F025F8A8420ED2384667
:401400002946FFF793FF044650B131462A46FFF7F7FB38463146FFF745FF01E03046F8BD2046F8BD38B5064C0023054608462360FEF728FF431C02D1236803B12B6038BDBA
:40144000C081FF1F51F8040C0028BEBF091851F8043CC01804387047000000000A0D0000257500007072696E74696E67207278206275666665720000726563656976656493
:4014800000000000646F6E65207072696E74696E67207278206275666665720057656C636F6D652100000000496E697469616C697A696E67000000006E7266526563656951
:4014C00076650A0073656E64696E6720525F52585F5041594C4F414420636F6D6D616E640A00000066696E69736865642073656E64696E670A00000073656E64696E6720CE
:40150000525F52585F5041594C4F414420646174610A00006E726653656E640073656E64696E6720575F54585F5041594C4F414420636F6D6D616E640A00000073656E64CD
:40154000696E6720575F54585F5041594C4F414420646174610A000077616974696E6720666F7220535049204D6173746572205278204649464F206E6F7420656D7074799E
:401580000A00000052656164696E6720636F6E6669672072656769737465722E0000000057726974696E672070736F634279746520746F20746573742072656769737465DB
:4015C000722E000052656164696E6720746573742072656769737465722E00006563686F696E67000D0A0000656E64206F66206C6F6F700000510040200030510040200072
:40160000F0510040100000000140000A800A0140800500140140000800400140000A004C014000020050014020000000000A0140C8040048800000004300232D302B200069
:40164000686C4C006566674546470030313233343536373839414243444546003031323334353637383961626364656600000000F8B500BFF8BC08BC9E4670474D00000076
:4016800001030000F8B500BFF8BC08BC9E46704729000000A81600000881FF1F80000000400000000000000000000000C881FF1F0000C05D80BB000030000000006CDC0220
:4016C000000000000000000000000000000000000000000000000000000000000000000038160000000000000000000000000000000000000000000000000000000000009C
:4017000000000000000000000000000000000000000000000000000000000000000000002081FF1F00000000000000000000000000000000000000000000000000000000EA
:401740000000000000000000000000000000000000000000000000000000000000000000000000000000000000000000000000000000000000000000000000000000000069
:401780000000000000000000000000000000000000000000000000000000000000000000000000000000000000000000000000000000000000000000000000000000000029
:4017C00000000000000000000000000000000000000000000000000000000000000000000000000000000000000000000000000000000000000000000000000000000000E9
:4018000000000000000000000000000000000000000000000000000000000000000000000000000000000000000000000000000000000000000000000000000000000000A8
:020000040003F7
:0200000480007A
:400000000352004001640040036500404C080140450901400E0A0140350B0140020D01405418014049190140601A0140481B0140024401400245014002470140044C0140B7
:400040000E4D0140065001402948604061408A0F89728A388B0F03080703082E090C0A510B030C190E22130C142415011648170E187019011B062C0432073478350F382029
:400080003A083B20580459045C105F018080811182048404858F8770880189338C078D228E389004928093339456950C9609986099049C849D08A084A18CA373A484A5F30F
:4000C000A70CA80AA9FFAA10B008B130B27FB380B480B540B602B70FB808B920BB80BE51BF04D409D804D904DB04DC10DF0101080280030B0510060407010A910B080E141E
:400100001105120415C0180419401A401B081E142120220523022510280829022A082B043010318832023601372438283A413D203F0644104708582059055A4061408801A3
:400140008D208E088F02900A91859281930894049610988099069C019D109F0AA280A304A411A588A602A702C0CFC26FC48ECA07CCEFCEEFD60FD80888058A0A8C028E0DFF
:4001800094099606A003A20CB60FBA80D440D804DB04DF01006001080550080109880A040E101202130A1680184A190A1A041B041D402210231029102B0232103345388060
:4001C00039143B01400442904306480149144B0151405210530461406610671169156A806B417040720189108A809880C0C7C22FC41DCA0CCC0FCE0FD007D20CD878988056
:40020000B48003020602076909960B210C01130615D81603172319D81A031B25280429182B203203333C3404350737C039803B283E103F404001474049FF4A074BFF4C40A7
:400240004D204EF04F0550085608580459045A045B045C105D915F01604061A862406320809A8302843886C089018C138D018E649098920294FC9603982199019AD89C9AA1
:40028000A002A298A302A498A602AC02B013B101B2E0B302B40FBA28BF04D602D712D804D904DB04DC10DD10DF0100400109044005040A950E141144128016041840191813
:4002C0001A041B021D041E08220A2540272429012E20302036013724380A39A23B043D203E023F0445404F04560257015A085C8064016640682069A06A2071887308900218
:400300009145929B94209704988899209C019D189E419F2CA130A280A410A588A603A703A820A940B404B501B708C0ADC26FC44DCA21CCE4CEEDD010D612D81004010626AB
:400340000C0A0E51101412491301141F1A80241F2A80301832073301348036603E50406541024204440145C0470E481249FF4AFF4BFF4C624DA04EF04F41500C541858049F
:4003800059045A045B045C115D115F016640670269106A306B106D106E106F1284108502860C8704880C8A118B058C10902092039505981499059C099E10A704A81CAA02A5
:4003C000B01FB103B220B704B902BE04BF40C026C103C50BC6C0C70EC819C9FFCAFFCBFFCEF0CF44D00CD401D804D904DA04DB04DC11DD11DF01E6C0EA40EB0200400108A7
:40040000020106020724080109200A200E420F0810281510186519081E602020264128202B202F20300137243D303F0440094101472449214A024C044F08500856245720E9
:400440005A025C205E885F016004624086488A108E048F0190089102922293049420980999209A029B249D019E25A020A130A20EA410A601A904C0E5C2DEC446CA40CC61BF
:40048000CE60D06DD22CD6F1D80CEC010220C008B620EA088808E2019C08A310B710E8080808592063207502890299209C08A310A920C208D401D802DE04E00100030C03D3
:4004C000100311011C031D01000000107F1D0000001D2000271D5000200D0010060200082602490D041D0000790006000200000000020004000159023E000010460F0700A4
:4005000000002A20000000046304200005DEFC0B1FFFFFFF2200F008040000000000022004040404010000010000C00040011011C001001140014001000000000000000018
:400540000000000000000000400000404000400000000000007F7F000000000010CCCC0048000000010808000000000000000000000000000000000000000000000000007C
:40058000000000000000000000000000000000000000000000000000000000000000000000000000000000000000000000000000000000000000000000000000000000003B
:4005C00000000000000000000000000000000000000000000000000000000000000000000000000000000000000000000000000000000000000000000000000000000000FB
:4006000000000000000000000000000000000000000000000000000000000000000000000000000000000000000000000000000000000000000000000000000000000000BA
:40064000000000000000000000000000000000000000000000000000000000000000000000000000000000000000000000000000000000000000000000000000000000007A
:0200000490006A
:0400000000004005B7
:0200000490105A
:04000000BC90ACAF55
:0200000490303A
:02000000062ECA
:0200000490402A
:4000000000000000000000000000000000000000000000000000000000000000000000000000000000000000000000000000000000000000000000000000000000000000C0
:400040000000000000000000000000000000000000000000000000000000000000000000000000000000000000000000000000000000000000000000000000000000000080
:400080000000000000000000000000000000000000000000000000000000000000000000000000000000000000000000000000000000000000000000000000000000000040
:4000C0000000000000000000000000000000000000000000000000000000000000000000000000000000000000000000000000000000000000000000000000000000000000
:0200000490501A
:0C00000000012E12306900012E1C369702
:00000001FF