:10000000022D03008F828E83E0540100000070F8FF
:100010002278FFE4F6D8FD022D61900082E4F09092
:100020006000E0FF900085EFF07B007A007900909F
:100030000086120C7C900110E4F0A3E4F09000859F
:10004000E0FFEF5480FF7E00EF64804E6003020209
:10005000F5906001E0FFEF120CB1021D00006A068E
:1000600002A90802C90A00000514906003E0FFEF2E
:10007000B4013512430190008BEEF0A3EFF0900035
:100080008BE0FEA3E0FF8F828E83A3120C8590018C
:1000900012120C7C900110E4F0A37412F012385686
:1000A000900082EFF0020514906003E0FFEF64021D
:1000B000707A906002E0FF1233AC90008BEEF0A3F8
:1000C000EFF090008BE0FEA3E0FFEF4E700302051F
:1000D0001490008BE0FEA3E0FF8F828E83A3120CAE
:1000E00085900112120C7C900112120C73E924030A
:1000F000F9EA3400FA120A10FF7E00EF7F00FE904A
:100100000112120C73E92402F9EA3400FA120A10FF
:10011000FD7C00EE4CFEEF4DFF900110EEF0A3EFE2
:10012000F0123856900082EFF0020514906003E060
:10013000FFEF64036003020212900089E4F07BFF8A
:100140007A4479FB900086120C7C900089E0FF9045
:100150006002E0FEEED39F403D900086120C7312C9
:100160000A10FFEF6030900086120C73120A10FF25
:1001700090008AEFF0900086120C7390008AE0FFE6
:100180007E00E92FF9EA3EFA900086120C7C90007E
:1001900089E004F080B4906002E0FFEFB4EE0C7BE5
:1001A000FF7A46790D900086120C7C906002E0FF89
:1001B000EF60249044B6E493FF906002E0FEEEB559
:1001C00007157B017A0179911225D87B017A017993
:1001D00091900086120C7C900086120C73120A100B
:1001E000FFEF7003020514900086120C73120A10C0
:1001F000FF7E00900110EEF0A3EFF0900086120C4D
:1002000073900112120C7C123856900082EFF002AB
:100210000514123447900082EFF002051490008517
:10022000E0FFEF5403FFEF120CB10277000234023B
:1002300000000514900110E4F0A37402F090600433
:10024000E0FFEF547FFFEF75F00BA424ADF582E4DF
:100250003400F583E0FF9001EAEFF09001EBE4F069
:100260007B017A0179EA900112120C7C12385690C7
:100270000082EFF0020514900110E4F0A37402F084
:100280009000A5E0FF9001EAEFF09001EBE4F07B35
:10029000017A0179EA900112120C7C123856900012
:1002A00082EFF0020514020514900110E4F0A3742B
:1002B00001F07B017A0079A6900112120C7C1238B1
:1002C00056900082EFF0020514900110E4F0A37440
:1002D00001F0906004E0FF740E2FF9E43401FA7B22
:1002E00001900112120C7C123856900082EFF0023D
:1002F0000514020514906001E0FFEF120CB103F544
:1003000001048D03031105032609039E0B0000055C
:1003100014906002E0FF90011FEFF012431C900068
:1003200082EFF0020514906002E0FF900084EFF08D
:10033000900084E0FFEFD394004013900084E0FF2E
:10034000EF14FF1233AC90008BEEF0A3EFF09000AF
:1003500084E0FFEFD39400400C90008BE0FEA3E01C
:10036000FFEF4E700B900084E0FFEF600302051476
:100370009000A6E0FF900084E0FEEE6F6015900014
:1003800084E0FF9000A6EFF090011C7401F07F0163
:1003900012051A12431C900082EFF002051412326B
:1003A0006CEF7003020514906004E0FF900083EF8F
:1003B000F0906004E0FF900118EFF0900083E0FF00
:1003C000740E2FF582E43401F583E0FF900083E0A2
:1003D000FE741D2EF582E43401F583E0FEEE6F60BD
:1003E0000990011C7401F012112312431C90008229
:1003F000EFF0020514900085E0FFEF5403FFEF12C9
:100400000CB1042500044B01040F020000051490F8
:100410006002E0FFEF600302051412237590008272
:10042000EFF0020514906002E0FFEF640160030248
:1004300005149000A5E0FFEF54FDFF9000A5EFF03C
:1004400012431C900082EFF0020514906004E0FF5C
:10045000EFC394024003020514906004E0FF74208F
:100460002FF582E43401F583C083C082E0FF906001
:1004700002E0FEEEF4FEEF5EFFD082D083EFF012DA
:10048000431C900082EFF0020514020514900085D1
:10049000E0FFEF5403FFEF120CB104B90004DB01DD
:1004A00004A70200000514906002E0FFEF706512DF
:1004B0002ECB900082EFF0805B906002E0FFEF6453
:1004C0000170519000A5E0FFEF4402FF9000A5EFFE
:1004D000F012431C900082EFF08039906004E0FF3E
:1004E000EFC39402502E906004E0FF74202FF58239
:1004F000E43401F583C083C082E0FF906002E0FE37
:10050000EEF4FEEF5EFFD082D083EFF012431C903A
:100510000082EFF0900082E0FF2290008DEFF090DB
:100520000095E4F0A3E4F090008EE4F090008EE0FB
:10053000FFEFC3940940030205D990008EE0FFEF5E
:1005400075F00BA424ABF582E43400F583E4F0905D
:10055000008EE0FFEF75F00BA424ADF582E43400CB
:10056000F583E4F090008EE0FFEF75F00BA424AE6D
:10057000F582E43400F583E4F090008EE0FFEF753F
:10058000F00BA424B3F582E43400F583E4F0A3E493
:10059000F090008EE0FFEF75F00BA424B5F582E437
:1005A0003400F583E4F090008EE0FFEF75F00BA4CB
:1005B00024ACF582E43400F583E4F090008EE0FF93
:1005C000EF75F00BA424B0F582E43400F583E4F079
:1005D00090008EE004F002052C90008DE0FFEF60AB
:1005E0003A900090E4F0900090E0FFEFC394025046
:1005F0002A900090E0FF740E2FF582E43401F58319
:10060000E4F0900090E0FF741D2FF582E43401F5D2
:1006100083E4F0900090E004F080CB9000A6E0FF2F
:10062000EFD394005003020A0F90009BE4F0900077
:10063000A6E0FFEF14FF1233AC900097EEF0A3EFAB
:10064000F0900097E0FEA3E0FF8F828E83A3120C50
:1006500085900092120C7C900092120C73E9240792
:10066000F9EA3400FA120A10FFEF5440FF7E00EF5F
:100670004E60109000A5E0FFEF4401FF9000A5EF51
:10068000F0800E9000A5E0FFEF54FEFF9000A5EF74
:10069000F0900097E0FEA3E0FFEF2404FFEE3400AB
:1006A000FE900097EEF0A3EFF0900097E0FEA3E03D
:1006B000FF8F828E83E493FF90008EEFF090009086
:1006C0007401F0900090E0FFEFC394094003020929
:1006D0001C900097E0FEA3E0FF8F828E83A3120C94
:1006E00085AE02AF01900099EEF0A3EFF090008F7D
:1006F000E4F090008EE0FF90008FE0FEEEC39F409C
:1007000003020913900099E0FEA3E0FF8F828E831D
:10071000740293FFEF547FFF7E00900090E0FD7C19
:1007200000ED6F7002EC6E60030208F2900099E039
:10073000FEA3E0FF8F828E83740493FE740593FF03
:10074000900090E0FDED75F00BA424B3F582E43445
:1007500000F583E0FCA3E0FDC3ED9FEC9E502C90E0
:100760000099E0FEA3E0FF8F828E83740493FE74F1
:100770000593FF900090E0FDED75F00BA424B3F518
:1007800082E43400F583EEF0A3EFF0900099E0FEF0
:10079000A3E0FF8F828E83E493FF740E2FF582E433
:1007A0003401F583E0FF900099E0FCA3E0FD8D8229
:1007B0008C83740193FEEF6E60030208F29000993F
:1007C000E0FEA3E0FF8F828E83740293FF9000907F
:1007D000E0FEEE75F00BA424AFF582E43400F5835F
:1007E000EFF0900099E0FEA3E0FF8F828E83740308
:1007F00093FF900090E0FEEE75F00BA424ABF58221
:10080000E43400F583EFF0900099E0FEA3E0FF8F61
:10081000828E83740393FFEF5403FF900091EFF0F7
:10082000900099E0FEA3E0FF8F828E83740293FF15
:10083000EF5480FF7E00EF4E603C900091E0FFEFB0
:10084000B401047F0780027F0D900090E0FEEE75FA
:10085000F00BA424B0F582E43400F583EFF09000AF
:1008600090E0FFEF75F00BA424ACF582E43400F5C2
:10087000837401F08039900091E0FFEFB401047FB0
:100880000580027F09900090E0FEEE75F00BA42435
:10089000B0F582E43400F583EFF0900090E0FFEFD4
:1008A00075F00BA424ACF582E43400F583E4F090F9
:1008B0000099E0FEA3E0FF8F828E83740693FFEF22
:1008C000640A6014900099E0FEA3E0FF8F828E839B
:1008D000740693FFEFB4021A900099E0FEA3E0FFC4
:1008E000900090E0FD90009BE0FB122A2A90009B74
:1008F000EFF0900099E0FEA3E0FFEF2407FFEE3455
:1009000000FE900099EEF0A3EFF090008FE004F06D
:100910000206F2900090E004F00206C3900097E017
:10092000FEA3E0FF8F828E83A3120C85AE02AF017F
:10093000900099EEF0A3EFF0900090E4F090008E1C
:10094000E0FF900090E0FEEEC39F5053900099E0CE
:10095000FEA3E0FF8F828E83E493FF900099E0FC7A
:10096000A3E0FD8D828C83740293FEEE547FFEEE35
:1009700075F00BA424B5F582E43400F583EFF09014
:100980000099E0FEA3E0FFEF2407FFEE3400FE90A5
:100990000099EEF0A3EFF0900090E004F0809E123A
:1009A000330D90011AEEF0A3EFF0900095E4F0A360
:1009B000E4F090008E7401F090008EE0FFEFC3949D
:1009C000095049900095E0FEA3E0FF90008EE0FD05
:1009D000ED75F00BA424B1F582E43400F583EEF05C
:1009E000A3EFF090008EE0FFEF75F00BA424B3F5B9
:1009F00082E43400F583E0FEA3E0FF900095EE8FE3
:100A0000F0120A3B90008EE004F080AC1220C62267
:100A1000BB010689828A83E0225002E722BBFE02E4
:100A2000E32289828A83E49322BB010689828A8336
:100A3000F0225002F722BBFE01F322C5F0F8A3E03A
:100A400028F0C5F0F8E582158270021583E038F0D1
:100A500022BB010A89828A83E0F5F0A3E0225006D6
:100A600087F009E71922BBFE07E3F5F009E3192235
:100A700089828A83E493F5F074019322BB010A8989
:100A8000828A83F0E5F0A3F0225006F709A7F01957
:100A900022BBFE06F3E5F009F31922EF2BFFEE3A35
:100AA000FEED39FDEC38FC22E88FF0A4CC8BF0A4ED
:100AB0002CFCE98EF0A42CFC8AF0EDA42CFCEA8E30
:100AC000F0A4CDA8F08BF0A42DCC3825F0FDE98F53
:100AD000F0A42CCD35F0FCEB8EF0A4FEA9F0EB8F4A
:100AE000F0A4CFC5F02ECD39FEE43CFCEAA42DCE17
:100AF00035F0FDE43CFC2275F008758200EF2FFF15
:100B0000EE33FECD33CDCC33CCC58233C5829BEDE5
:100B10009AEC99E58298400CF582EE9BFEED9AFDE9
:100B2000EC99FC0FD5F0D6E4CEFBE4CDFAE4CCF999
:100B3000A88222B800C1B90059BA002DEC8BF0840C
:100B4000CFCECDFCE5F0CBF97818EF2FFFEE33FEDA
:100B5000ED33FDEC33FCEB33FB10D703994004EB92
:100B600099FB0FD8E5E4F9FA227818EF2FFFEE335E
:100B7000FEED33FDEC33FCC933C910D7059BE99A70
:100B80004007EC9BFCE99AF90FD8E0E4C9FAE4CC01
:100B9000FB2275F010EF2FFFEE33FEED33FDCC336B
:100BA000CCC833C810D7079BEC9AE899400AED9B54
:100BB000FDEC9AFCE899F80FD5F0DAE4CDFBE4CC33
:100BC000FAE4C8F922EF4BFFEE4AFEED49FDEC488E
:100BD000FC22EB9FF5F0EA9E42F0E99D42F0E89C92
:100BE00045F022E8600FECC313FCED13FDEE13FE9D
:100BF000EF13FFD8F122E8600FEFC333FFEE33FEAF
:100C0000ED33FDEC33FCD8F122BB010789828A83E6
:100C1000020C435005E9F8020D55BBFE05E9F80248
:100C20000D6189828A83020D6DBB010789828A83E7
:100C3000020C5B5005E9F8020D7DBBFE05E9F802E8
:100C40000D8922E0FCA3E0FDA3E0FEA3E0FF22E08B
:100C5000F8A3E0F9A3E0FAA3E0FB22ECF0A3EDF0A7
:100C6000A3EEF0A3EFF022A42582F582E5F0358310
:100C7000F58322E0FBA3E0FAA3E0F922EBF0A3EA7C
:100C8000F0A3E9F022E493FB740193FA740293F960
:100C900022BB010789828A83020C735005E9F8029E
:100CA0000D95BBFE05E9F8020DB589828A83020C19
:100CB00085D083D082F8E4937012740193700DA3F1
:100CC000A393F8740193F5828883E47374029368A4
:100CD00060EFA3A3A380DFE50E2582F582E50D3545
:100CE00083F583B50D0485820E2210AF0685820E32
:100CF000F50D2285820EF50DD2AF22EC8EF0A4CC3C
:100D0000C5F0CCCDF8EFA4CEC5F02DFDE43CFCE859
:100D1000A42EC8C5F03DFDE43CFCEFA4FFE5F0289F
:100D2000FEE43DFDE43CFC22BB010CE58229F5829A
:100D3000E5833AF583E0225006E92582F8E622BBF6
:100D4000FE06E92582F8E222E58229F582E5833A6A
:100D5000F583E49322E6FC08E6FD08E6FE08E6FFDC
:100D600022E2FC08E2FD08E2FE08E2FF22E493FC36
:100D7000740193FD740293FE740393FF22ECF60852
:100D8000EDF608EEF608EFF622ECF208EDF208EECA
:100D9000F208EFF222E6FB08E6FA08E6F922F8E0AC
:100DA000FBA3A3E0F925F0F0E5821582700215831C
:100DB000E0FA38F022E2FB08E2FA08E2F922E5085C
:100DC000245AF582E43400F583E0050822900057A8
:100DD00030070390005AE475F001120D9E020A10CC
:100DE0002000E97F2ED2008018EF540F2490D434D5
:100DF00040D4FF30040BEF24BFB41A005003246129
:100E0000FFE50960021509050CE50C7002050B30C1
:100E1000070E900057E475F001120D9EEF020A29AB
:100E20000242127403D2078003E4C207F50890005F
:100E300057120C7CE4F509F50BF50CE50960077F0A
:100E400020120E0180F5750AFFC201C200C202C263
:100E500003C205C206C208120DCDFF700D30070592
:100E60007F00120E12AF0CAE0B22B4255FC2D5C2AA
:100E700004120DCDFF24D0B40A00501A75F00A7880
:100E80000930D50508B6FF0106C6A426F620D5040C
:100E90007002D20380D924CFB41A00EF5004C2E507
:100EA000D204021013D20180C6D20080C0D20280C8
:100EB000BCD2D580BAD20580B47F20120E012002A8
:100EC000077401B5090040F1120DBEFF120E0102B8
:100ED0000E3BD208D2068095120DBEFB120DBEFA53
:100EE000120DBEF94A4B700679E47A107BFF20029E
:100EF0002EE509602A7E008E82758300120D28601F
:100F0000060EEE650A70F0C2D5EBC0E0EAC0E0E97B
:100F1000C0E0EE12105AD0E0F9D0E0FAD0E0FB12B7
:100F20000A10FF60AAEBC0E0EAC0E0E9C0E0120EE0
:100F300001D0E02401F9D0E03400FAD0E0FBE50A6A
:100F40000460DCD50AD980877BFF7A107956D202FB
:100F5000809C791080027908C206C2088008D2D528
:100F6000790A8004790AC2D5E50A047002F50AE418
:100F7000FAFDFEFF120DBEFC7B08200113120DBE10
:100F8000FD7B1030000A120DBEFE120DBEFF7B204D
:100F9000EC3382D592D55013C3E43000069FFFE4B2
:100FA0009EFEE42001039DFDE49CFCE4CBF8C2011D
:100FB000EC700CCFCECDCCE824F8F870F38017C3DA
:100FC000EF33FFEE33FEED33FDEC33FCEB33FB99F7
:100FD0004002FB0FD8E9EB300105F8D0E0C448B27D
:100FE00001C0E00AEC4D4E4F78207B0070C2EAB59C
:100FF0000A0040BCC0E012105CD0F0D0E020010438
:10100000C4C0E0C4B201C0F0120DEAD0F0D5F0EBDC
:10101000020E3B120CB10ED8530F52580EA94C0EB3
:10102000A5420F564F0F5E440F5E490EBE430F643C
:10103000550F48460F48450F48471104500EAD2D37
:101040000EB12E0ED42B0EB5230ED22010ED2A0E8B
:101050006D4800000ECC3F3F3F00790AA2D5200327
:1010600014300509B910020404B9080104A2D520FE
:1010700006025001042002689202B509005034C0F3
:10108000E07F203003197F30A20272067205500FF4
:101090001210B3C202C206C205C2087F30800F30F0
:1010A0000503E9C0E0120E01300503D0E0F9D0E0FD
:1010B000B509CC3005177F30B9100C120E017F58DE
:1010C0003004077F788003B90803120E013002054F
:1010D0007F2D020E017F202008F87F2B2006F322AF
:1010E000920280CF286E756C6C2900D201120DBE61
:1010F0003001F8C201780930D50108F6020E6D2DD5
:1011000050434958120DBE2403B405004001E49039
:1011100010FF93120DF2743A120DF2D20375090406
:10112000020F529000A6E0FFEFD394005003021488
:101130007D9000A6E0FFEF14FF1233AC900092EE1A
:10114000F0A3EFF0900092E0FEA3E0FFEF2404FF95
:10115000EE3400FE900092EEF0A3EFF0900092E0EB
:10116000FEA3E0FF8F828E83E493FF90008DEFF06B
:10117000900092E0FEA3E0FF8F828E83A3120C8585
:10118000AE02AF01900094EEF0A3EFF0900118E0F2
:10119000FF900091EFF0900090E4F090008DE0FF60
:1011A000900090E0FEEEC39F400302147D900094F7
:1011B000E0FEA3E0FF8F828E83E493FF900091E036
:1011C000FEEE6F600302145C900094E0FEA3E0FF6B
:1011D0008F828E83740193FF900091E0FE740E2E37
:1011E000F582E43401F583E0FEEE6F600302145CE7
:1011F000900094E0FEA3E0FF8F828E83740293FF41
:10120000EF547FFF90008EEFF0900094E0FEA3E09B
:10121000FF8F828E83740393FFEF5403FF90008F40
:10122000EFF090008EE0FFEF75F00BA424AEF58296
:10123000E43400F583E4F0900094E0FEA3E0FF8F37
:10124000828E83740293FF90008EE0FEEE75F00BA9
:10125000A424AFF582E43400F583EFF0900094E02D
:10126000FEA3E0FF8F828E83740393FF90008EE0D5
:10127000FEEE75F00BA424ABF582E43400F583EFA9
:10128000F0900094E0FEA3E0FF8F828E83740493BD
:10129000FE740593FF90008EE0FDED75F00BA42425
:1012A000B3F582E43400F583EEF0A3EFF090009400
:1012B000E0FEA3E0FF8F828E83740293FFEF5480E1
:1012C000FF7E00EF4E603C90008FE0FFEFB4010422
:1012D0007F0780027F0D90008EE0FEEE75F00BA47C
:1012E00024B0F582E43400F583EFF090008EE0FF47
:1012F000EF75F00BA424ACF582E43400F58374019F
:10130000F0803990008FE0FFEFB401047F05800288
:101310007F0990008EE0FEEE75F00BA424B0F582FC
:10132000E43400F583EFF090008EE0FFEF75F00BF2
:10133000A424ACF582E43400F583E4F090008EE060
:10134000FF75F010EF905FFE120C677401F09000D3
:101350008EE0FFEF75F00BA424B3F582E43400F5C2
:1013600083E0FEA3E0FFEEFF7E0090008EE0FE75BE
:10137000F010EE905FFC120C67EFF090008EE0FF33
:10138000EF75F00BA424B3F582E43400F583E0FE9E
:10139000A3E0FFEF54FFFF90008EE0FE75F010EE2B
:1013A000905FFD120C67EFF090008EE0FFEF75F09C
:1013B0000BA424B1F582E43400F583E0FEA3E0FF42
:1013C000EF54FFFF90008EE0FE75F010EE90607617
:1013D000120C67EFF090008EE0FFEF75F00BA42485
:1013E000B1F582E43400F583E0FEA3E0FFEEFF7E7A
:1013F0000090008EE0FE75F010EE906077120C67A2
:10140000EFF090008EE0FFEF75F00BA424B1F582B1
:10141000E43400F583E0FEA3E0FFEF54FFFF90000B
:101420008EE0FE75F010EE906074120C67EFF09095
:10143000008EE0FFEF75F00BA424B1F582E43400D8
:10144000F583E0FEA3E0FFEEFF7E0090008EE0FE5D
:1014500075F010EE906075120C67EFF0900094E05C
:10146000FEA3E0FFEF2407FFEE3400FE900094EEB1
:10147000F0A3EFF0900090E004F002119B229000A6
:101480008FE4F0906004E0FF900090EFF090600037
:10149000E0FFEF5480FF7E00EF4E70030215A19035
:1014A0006001E0FFEF120CB1150801152502156768
:1014B0000314B806000016B4906003E0FFEFB421F7
:1014C0001D122823900110E0FEA3E0FFEF4E7003F1
:1014D0000216B412385690008FEFF00216B49060E6
:1014E00003E0FFEF642260030216B41224AE900101
:1014F00010E0FEA3E0FFEF4E70030216B412385660
:1015000090008FEFF00216B4121A9E900110E0FEC8
:10151000A3E0FFEF4E70030216B412385690008F0E
:10152000EFF00216B4900090E0FFEFC39402400386
:101530000216B4906002E0FFEF60030216B490015F
:1015400010E4F0A37401F0900090E0FF74DF2FF935
:10155000E43401FA7B01900112120C7C123856908F
:10156000008FEFF00216B4900090E0FFEFC39402FA
:1015700040030216B4900110E4F0A37401F090004F
:1015800090E0FF74DB2FF9E43401FA7B0190011243
:10159000120C7C12385690008FEFF00216B402162F
:1015A000B4906001E0FFEF120CB115B70915D40A31
:1015B00016800B000016B4121A9E900110E0FEA3D4
:1015C000E0FFEF4E70030216B4123ABF90008FEFA7
:1015D000F00216B4900090E0FFEFC39402400302C3
:1015E00016B4906002E0FFEF60030216B49060034F
:1015F000E0FF900090E0FE74DF2EF582E43401F508
:1016000083EFF0900090E0FF74DD2FF582E4340169
:10161000F583E0FF900090E0FE74DF2EF582E43465
:1016200001F583E0FEEEC39F5013900090E0FF743D
:10163000DD2FF582E43401F583E4F08039900090E9
:10164000E0FF74DD2FF582E43401F583E0FFEFD392
:1016500094014022900090E0FF74DF2FF582E43483
:1016600001F583E0FF900090E0FE74DD2EF582E44A
:101670003401F583EFF012431C90008FEFF08034BB
:10168000900090E0FFEFC394025029906002E0FFC9
:10169000EFD39401501E906002E0FF900090E0FEB6
:1016A00074DB2EF582E43401F583EFF012431C90D5
:1016B000008FEFF090008FE0FF22124401D2AF9034
:1016C00044F474FDF07D017F001241E9124284EF81
:1016D0006009124499EF60031231CA124499EF6015
:1016E000EB1243D7EF60557B017A007902123B7D04
:1016F000900000EEF0A3EFF0900000E0FEA3E0FF0A
:10170000EF4E60381243ECEF60FA7B017A00790209
:10171000900000E0FCA3E0FD1234DA900000E0FE4F
:10172000A3E0FFEF64404E70131243ECEF60FA7BCE
:10173000007A0079007D007C001234DA123E379086
:101740000042EFF0900042E0FFEF6080900042E046
:10175000FFEF5401FF7E00EF4E7003021808122FB6
:1017600098C004C005C006C0071243C17E00C00671
:10177000C0071243ABEF75F003A424B3F582E43441
:1017800001F583120C73120A10FFC007124395EF84
:1017900075F003A424C2F582E43401F583120C73BE
:1017A000900064120C7CD007900063EFF0D007D05B
:1017B00006900061EEF0A3EFF0D007D006D005D080
:1017C0000490005D120C5B7B017A007943C003C07A
:1017D00002C0017BFF7A3C795490005A120C7CD0F5
:1017E00001D002D003120E237D007F00123D3E7B0C
:1017F000FF7A3C7963123E857D007F00123D3E7B7F
:10180000017A007943123E85900042E0FFEF5402D6
:10181000FF7E00EF4E70030216CC12436790004229
:10182000EFF07B017A007943C003C002C0017BFF67
:101830007A3C797890005A120C7C900042E0FFEFDD
:101840005401FF7E00EF4E60087BFF7A3C79868072
:10185000067BFF7A3C798990005D120C7C900042F7
:10186000E0FFEF5402FF7E00EF4E60087BFF7A3C02
:10187000798680067BFF7A3C7989900060120C7C27
:10188000D001D002D003120E237D007F01123D3E15
:101890007BFF7A3C7963123E857D007F01123D3EDD
:1018A0007B017A007943123E850216CC2290009A81
:1018B000120C7C7B0C7A017903124481E4FCFDFE5E
:1018C00090009A120C73120C2990009A120C73C09B
:1018D00003C002C001120C09C004C005C006C00745
:1018E0007B0C7A017904124481E4FCFDFE78081235
:1018F0000BF6A804A905AA06AB07D007D006D005A9
:10190000D004120BC5D001D002D003120C299000D4
:101910009A120C73C003C002C001120C09C004C0AB
:1019200005C006C0077B007A4679EC124481E4FCCE
:10193000FDFE7810120BF6A804A905AA06AB07D085
:1019400007D006D005D004120BC5D001D002D003B9
:10195000120C2990009A120C73C003C002C001122D
:101960000C09C004C005C006C0077B0C7A017902CF
:10197000124481E4FCFDFE7818120BF6A804A905B8
:10198000AA06AB07D007D006D005D004120BC5D0ED
:1019900001D002D003120C297B0C7A017901124488
:1019A00081E4FCFDFE90009A120C73E92404F9EA2C
:1019B0003400FA120C2990009A120C73E92404F9ED
:1019C000EA3400FAC003C002C001120C09C004C00E
:1019D00005C006C0077B0C7A017900124481E4FC43
:1019E000FDFE7808120BF6A804A905AA06AB07D0DD
:1019F00007D006D005D004120BC5D001D002D00309
:101A0000120C2990009A120C73E92404F9EA3400AC
:101A1000FAC003C002C001120C09C004C005C00610
:101A2000C0077B0C7A017905124481E4FCFDFE7845
:101A300010120BF6A804A905AA06AB07D007D0061A
:101A4000D005D004120BC5D001D002D003120C294E
:101A500090009A120C73E92404F9EA3400FAC003E6
:101A6000C002C001120C09C004C005C006C0077B3B
:101A70000C7A017906124481E4FCFDFE7818120B01
:101A8000F6A804A905AA06AB07D007D006D005D052
:101A900004120BC5D001D002D003120C29229001F0
:101AA00010E4F0A3E4F09000A6E0FFEF14FF12337F
:101AB000AC900091EEF0A3EFF0906003E0FF900097
:101AC00096EFF0906004E0FF900097EFF0900097A1
:101AD000E0FF7E00EF2402FFEE3400FEEF7802C349
:101AE00033CE33CED8F9FF900091E0FCA3E0FDEFB8
:101AF0002DFFEE3CFE900091EEF0A3EFF0900091F0
:101B0000E0FEA3E0FF8F828E83A3120C85AE02AFAE
:101B100001900091EEF0A3EFF0900097E0FFEFC38B
:101B200094024003021C5A900097E0FF740E2FF5B8
:101B300082E43401F583E0FF7E04EF8EF0A4FFAE73
:101B4000F0900091E0FCA3E0FDEF2DFFEE3CFE9055
:101B50000091EEF0A3EFF0900091E0FEA3E0FF8F84
:101B6000828E83A3120C85AE02AF01900091EEF03D
:101B7000A3EFF0900096E0FFEFC394015003021C26
:101B80005A900096E0FFEFD394034003021C5A9052
:101B90000096E0FF7E00EF24FFFFEE34FFFEEF78BB
:101BA00002C333CE33CED8F9FF900091E0FCA3E01E
:101BB000FDEF2DFFEE3CFE900091EEF0A3EFF090D4
:101BC0006002E0FF900096EFF0900091E0FEA3E04D
:101BD000FF8F828E83E493FF900096E0FEEFC39E1A
:101BE0004078900091E0FEA3E0FF8F828E83A312E5
:101BF0000C85900093120C7C900096E0FF7E08EF1D
:101C00008EF0A4FFAEF0900093120C73E92FF9EA66
:101C10003EFA900093120C7C900093120C73E9240E
:101C200002F9EA3400FA120C91900112120C7C9025
:101C30000093120C73120A51FFAEF0900110EEF0F7
:101C4000A3EFF0900093120C73E92405F9EA340035
:101C5000FA120C91900115120C7C2290005DEFF0AD
:101C600090005E120C7C90005DE0FFEFD39400507A
:101C700003021DDF90005DE0FFEFC3940940030203
:101C80001DDF90005DE0FFEF75F00BA424B1F5823D
:101C9000E43400F583E0FEA3E0FFC3E49FFF740299
:101CA0009EFE900061E0FCA3E0FDD3ED9FEC9E4022
:101CB0002890005DE0FFEF75F00BA424B1F582E4FD
:101CC0003400F583E0FEA3E0FFC3E49FFF74029EAF
:101CD000FE900061EEF0A3EFF0900061E0FEA3E063
:101CE000FFEEFF7E0090005DE0FEEE75F00BA42499
:101CF000AEF582E43400F583E0FEEF4EFF90005D28
:101D0000E0FE75F010EE905FFC120C67EFF09000B3
:101D100061E0FEA3E0FFEF54FFFF90005DE0FE7581
:101D2000F010EE905FFD120C67EFF07B007A007907
:101D300000C003C002C00190005E120C73D082D0BC
:101D400083D0E06B7008E965827003EA65836054B4
:101D5000900063E4F0A3E4F0900061E0FEA3E0FFF4
:101D6000900063E0FCA3E0FDC3ED9FEC9E50359036
:101D7000005E120C73900063E0FEA3E0FFE92FF910
:101D8000EA3EFA120A10FF90005DE0FE75F010EED8
:101D9000906078120C67EFF0900063E475F0011228
:101DA0000A3B80B490005DE0FFEF75F00BA424AC1B
:101DB000F582E43400F583E4F090005DE0FFEF7518
:101DC000F00BA424B0F582E43400F583E0FF90002A
:101DD0005DE0FE75F010EE905FFE120C67EFF022F2
:101DE0007F947E017D007C0090005F120C5B90511F
:101DF00020E0FFEF5480FFEFF0905122E0FFEF541E
:101E0000F0FF90005EEFF090005EE0FFEF440FFF08
:101E1000905122EFF0905123E0FFEF54F0FF90003B
:101E20005EEFF090005EE0FF905123EFF0905124C0
:101E3000E0FFEF54F0FF90005EEFF090005EE0FFF7
:101E4000905124EFF0905120E0FFEF54DFFFEFF0CE
:101E5000905120E0FFEF4440FFEFF07F007E001242
:101E60004190905120E0FFEF4410FFEFF07F017EA2
:101E700000124190905121E0FF90005EEFF09051F0
:101E800020E0FFEF54EFFFEFF07F007E0012419063
:101E900090005EE0FFEF5408FF90005EEFF090517D
:101EA00020E0FFEF4410FFEFF07F017E0012419031
:101EB000905120E0FFEF54EFFFEFF090005EE0FF65
:101EC000EF70077F0A7E0012419090005F120C4372
:101ED0007BFF7AFF79FF78FF120A9B90005F120C5C
:101EE0005B90005EE0FFEF601290005F120C43D346
:101EF000EF9400EE94004003021E5B905120E0FF3F
:101F0000EF54BFFFEFF0905120E0FFEF5480FFEF60
:101F1000F0905122E0FFEF54F0FFEFF0905123E0FA
:101F2000FFEF54F0FF90005EEFF090005EE0FFEFF7
:101F3000440FFF905123EFF0905124E0FFEF54F055
:101F4000FF90005EEFF090005EE0FFEF440FFF9027
:101F50005124EFF022C0E0C0F0C083C082C085C031
:101F600084C086758600C093759300C0D075D0007C
:101F7000C000C001C002C003C004C005C006C00745
:101F8000906028E0FF90007FEFF090007FE0FFEF8F
:101F90005410FF7E00EF4E70030220A39000807467
:101FA00001F090007FE0FFEF5480FF7E00EF4E6075
:101FB0003190007FE0FFEF540FFF7E00EF64014E91
:101FC0006007900080E4F080461235699000A7E039
:101FD000FFEF5480FF7E00EF4E6034900080E4F00D
:101FE000802D90007FE0FFEF5440FF7E00EF4E60B9
:101FF0000512425F801990007FE0FFEF5420FF7EC2
:1020000000EF4E60051241628005900080E4F09080
:102010000080E0FFEF70030220A3906028E0FF90B3
:10202000007FEFF090007FE0FFEF5480FF7E00EF35
:102030004E70709000AAE0FF900122E0FEEE4FFF8C
:1020400090007FEFF090007FE0FF906029EFF0902C
:102050006029E0FF90007FE0FEEE6F70469000A7E1
:10206000E0FF900080EFF0906028E0FFEF5480FFE9
:1020700090007FEFF090007FE0FFEF70189000A7D6
:10208000E0FF906028EFF0906028E0FFEF540FFF32
:10209000900080EFF09000A7E0FF900080E0FEEE5F
:1020A000B507BAD007D006D005D004D003D002D0EF
:1020B00001D000D0D0D093D086D084D085D082D02B
:1020C00083D0F0D0E03290009C7401F090009CE04E
:1020D000FFEFC39409400302221A90009CE0FF75B1
:1020E000F010EF906070120C67740CF090009CE0A0
:1020F000FFEF75F00BA424B0F582E43400F583E023
:10210000FFEF604790009CE0FFEF75F00BA424AF59
:10211000F582E43400F583E0FFEF5480FF7E00EFAA
:102120004E601490009CE0FF75F010EF905FFE127F
:102130000C67740CF0802690009CE0FF75F010EFA7
:10214000905FFE120C677408F0801290009CE0FF14
:1021500075F010EF905FFE120C677480F090009C99
:10216000E0FFEF75F00BA424B1F582E43400F583B1
:10217000E0FEA3E0FFEF54FFFF90009CE0FE75F04F
:1021800010EE906076120C67EFF090009CE0FFEF8D
:1021900075F00BA424B1F582E43400F583E0FEA3CE
:1021A000E0FFEEFF7E0090009CE0FE75F010EE90E8
:1021B0006077120C67EFF090009CE0FFEF75F00B7A
:1021C000A424B1F582E43400F583E0FEA3E0FFEF40
:1021D00054FFFF90009CE0FE75F010EE90607412CA
:1021E0000C67EFF090009CE0FFEF75F00BA424B1BA
:1021F000F582E43400F583E0FEA3E0FFEEFF7E000D
:1022000090009CE0FE75F010EE906075120C67EF88
:10221000F090009CE004F00220CC90600A74FFF083
:102220002290480074C0F0122B217B007A4679E896
:10223000124481EF4405FD7B007A4679E812448D13
:10224000750A00E50AC39408503AAF0AEF75F00525
:10225000A424C4F582E43446F583AF82AE838E08AD
:102260008F09AE08AF098F828E83120C85AE08AF3E
:10227000098F828E83740393FC740493FD1243369A
:10228000050A80BF7E467F651241347B017A507912
:1022900003124481EF4402FD7B017A50790312441A
:1022A0008D7B017A507913124481EF4402FD7B014A
:1022B0007A50791312448D9043A0E0FFEF4440FF21
:1022C0009043A0EFF09043C2E0FFEF4410FF904333
:1022D000C2EFF07C467D4B7B007A5179F07F0A7E1D
:1022E000001242397C467D557B007A5179127F0875
:1022F0007E001242397C467D5D7B007A5179227FD7
:10230000087E001242399044F47401F0904322E0B8
:10231000FFEF4408FF904322EFF09046ECE0FFEF20
:10232000C394055006904689743AF07B017A50793F
:10233000077D4012448D7B017A5079177D4012440D
:102340008D1240CA7B007A4379A0C003C002C0014D
:102350007B007A4379B0900005120C7CD001D0024A
:10236000D0037F0E7E001241009043B0E0FFEF5497
:10237000FDFFEFF02290008DE4F0906004E0FFEFAD
:10238000547FFF90008EEFF090008EE0FFEFD3942B
:102390000050030224A890008EE0FFEFC394094090
:1023A000030224A890008EE0FFEF75F00BA424AD8B
:1023B000F582E43400F583E0FFEF54FEFFEFF09088
:1023C000008EE0FFEF75F00BA424AEF582E434003C
:1023D000F583E4F090008EE0FF75F010EF905FFC65
:1023E000120C67747FF090008EE0FFEF75F00BA485
:1023F00024ACF582E43400F583E0FFEF54FDFFEFF9
:10240000F090008EE0FFEF75F00BA424AFF582E4AE
:102410003400F583E0FFEF5480FF7E00EF4E604113
:1024200090008EE0FFEF75F00BA424ACF582E4344D
:1024300000F583E0FFEFB4011490008EE0FF75F02B
:1024400010EF905FFE120C67740CF0805390008EBA
:10245000E0FF75F010EF905FFE120C67740DF080D6
:102460003F90008EE0FFEF75F00BA424ACF582E402
:102470003400F583E0FFEFB4011490008EE0FF75A7
:10248000F010EF905FFE120C677408F0801290005D
:102490008EE0FF75F010EF905FFE120C677409F08C
:1024A00012431C90008DEFF090008DE0FF22900011
:1024B000A6E0FFEF14FF1233AC900091EEF0A3EF13
:1024C000F0906004E0FF900096EFF0900096E0FF3F
:1024D0007E00EF2402FFEE3400FEEF7802C333CE1D
:1024E00033CED8F9FF900091E0FCA3E0FDEF2DFF83
:1024F000EE3CFE900091EEF0A3EFF0900091E0FE34
:10250000A3E0FF8F828E83A3120C85AE02AF0190F1
:102510000091EEF0A3EFF0900096E0FF740E2FF51F
:1025200082E43401F583E0FF7E04EF8EF0A4FFAE79
:10253000F0900091E0FCA3E0FDEF2DFFEE3CFE905B
:102540000091EEF0A3EFF0900091E0FEA3E0FF8F8A
:10255000828E83A3120C85AE02AF01900091EEF043
:10256000A3EFF0900091E0FEA3E0FFEF240CFFEE5C
:102570003400FE900091EEF0A3EFF0900091E0FEA9
:10258000A3E0FF8F828E83A3120C85900093120C20
:102590007C900093120C73E92401F9EA3400FA12DA
:1025A0000A10FF7E00EF7F00FE900093120C731262
:1025B0000A10FD7C00EE4CFEEF4DFF900110EEF096
:1025C000A3EFF0900093120C73E92402F9EA3400AF
:1025D000FA900112120C7C2290008D120C7C90005B
:1025E00091E4F07B007A007900C003C002C0019042
:1025F000008D120C73D082D083D0E06B7008E96537
:10260000827003EA6583700302270190008D120C2B
:10261000737422120A2990008D120C73E92401F9B7
:10262000EA3400FA7403120A297B017A00799212C3
:1026300018AD9000907402F0900090E0FFEFC3940A
:10264000224003022701900091E0FF74922FF5824F
:10265000E43400F583E0FFEFC4540FFFEF9046EC45
:1026600093FF90008D120C73900090E0FEE92EF91C
:10267000E43AFAEF120A29900090E0FF7E00EF247E
:1026800001FFEE3400FE90008D120C73E92FF9EA81
:102690003EFAE4120A29900091E0FF74922FF5822D
:1026A000E43400F583E0FFEF540FFFEF9046EC9326
:1026B000FF900090E0FEEEFD7C00ED2402FDEC3486
:1026C00000FC90008D120C73E92DF9EA3CFAEF1230
:1026D0000A29900090E0FF7E00EF2403FFEE340013
:1026E000FE90008D120C73E92FF9EA3EFAE4120A0B
:1026F00029900091E004F0900090E02404F002267C
:102700003822124416900059EFF09043A5E0FFEFF5
:102710004401FFEFF09043B5E0FFEF4401FFEFF01D
:1027200090609D7401F09060097402F0906010E078
:10273000FFEF547FFFEFF07F007E00124190904347
:1027400094E0FFEF54F9FFEFF0906012E0FFEF54D8
:10275000DFFFEFF0904394E0FFEF4401FFEFF07FE5
:10276000017E001241907F287E001241909051F826
:10277000E0FFEF547FFFEFF09051F8E0FFEF54BF20
:10278000FFEFF0904394E0FFEF4402FFEFF07F0291
:102790007E00124190904394E0FFEF4404FFEFF07D
:1027A000906084E4F0906085E4F0900059E0FF12BE
:1027B000434F7D077F17123B1E7C3D7D957F17128F
:1027C00036797D077F18123B1E7C1F7D557F1812BE
:1027D00036797D077F15123B1E7C3F7DFE7F1512EB
:1027E00036797D077F00123B1E7C387DC27F001248
:1027F00036797D077F01123B1E7C397D297F0112CE
:1028000036797D077F02123B1E7C397D907F021254
:1028100036797D077F0C123B1E7C3D7DE67F0C12D6
:102820003679229000A6E0FFEF14FF1233AC90003F
:1028300091EEF0A3EFF0906004E0FF900096EFF0CF
:10284000900096E0FF7E00EF2402FFEE3400FEEFE2
:102850007802C333CE33CED8F9FF900091E0FCA3C9
:10286000E0FDEF2DFFEE3CFE900091EEF0A3EFF0C7
:10287000900091E0FEA3E0FF8F828E83A3120C856F
:10288000AE02AF01900091EEF0A3EFF0900096E061
:10289000FF740E2FF582E43401F583E0FF7E04EF30
:1028A0008EF0A4FFAEF0900091E0FCA3E0FDEF2DD0
:1028B000FFEE3CFE900091EEF0A3EFF0900091E06F
:1028C000FEA3E0FF8F828E83A3120C85AE02AF01C0
:1028D000900091EEF0A3EFF0900091E0FEA3E0FFF6
:1028E000EF2410FFEE3400FE900091EEF0A3EFF025
:1028F000900091E0FEA3E0FF8F828E83A3120C85EF
:10290000900093120C7C900093120C73120A10FF2B
:102910007E00900110EEF0A3EFF0900093120C7384
:10292000900112120C7C2290008FE4F0906004E081
:10293000FF1237E9900090EFF0906000E0FFEF5455
:1029400080FF7E00EF4E6045906001E0FFEF120CCB
:10295000B129582100002A24900110E4F0A3740743
:10296000F0900090E0FF7E07EF8EF0A4FFAEF074D1
:10297000682FF974013EFA7B01900112120C7C124F
:10298000385690008FEFF0022A24022A249060012A
:10299000E0FFEF120CB129A02029E82200002A2430
:1029A000900110E4F0A37407F0900090E0FF7E0720
:1029B000EF8EF0A4FFAEF074682FF974013EFA7B3D
:1029C00001900112120C7C900090E0FF74872FF5AB
:1029D00082E43401F583E0FFEF4401FFEFF0123AA7
:1029E000BF90008FEFF0803C906002E0FF7E00908F
:1029F0000090E0FDED25E02489F582E43401F583C3
:102A0000EEF0A3EFF0900090E0FF74872FF582E4E2
:102A10003401F583E0FFEF4402FFEFF012431C9016
:102A2000008FEFF090008FE0FF2290009CEEF0A36B
:102A3000EFF090009EEDF090009FEBF090009CE096
:102A4000FEA3E0FF8F828E83740393FFEF5403FF96
:102A50009000A0EFF090009CE0FEA3E0FF8F828E3C
:102A600083740293FFEF5480FF7E00EF4E607090FE
:102A700000A0E0FFEF6403603090009EE0FF900054
:102A80009FE0FEEEFD7C007C00ED5401FD74822D84
:102A9000F58274013CF583EFF090009FE0FFEF4476
:102AA00001FF90009FEFF0807290009EE0FF900089
:102AB0009FE0FEEE1313543FFEEEFD7C007C00ED24
:102AC0005401FD74802DF58274013CF583EFF09084
:102AD000009FE0FFEF4404FF90009FEFF0803C90E8
:102AE00000A0E0FFEF6403603290009EE0FF9000E2
:102AF0009FE0FEEEC313FEEEFD7C007C00ED540172
:102B0000FD74842DF58274013CF583EFF090009FF5
:102B1000E0FFEF4402FF90009FEFF090009FE0FF86
:102B2000227C467D477B007A4179007F047E00123B
:102B300042399043007406F09042007452F07B0CCE
:102B40007A01790F1244819046A1EFF07B007A421E
:102B500079227D187C081244727B007A4279207DAC
:102B6000517C12124472900004E4F07F197E007DC3
:102B7000007C00900000120C5B900000120C43D30C
:102B8000EF9400EE9400404E900004E0FFEF6403E9
:102B90006044904225E0FFEF5401FF7E0090000466
:102BA000E0FEEE25E0FEEE4FFFEF5403FF90000441
:102BB000EFF07FE07E017D007C001240009000007D
:102BC000120C437BFF7AFF79FF78FF120A9B90007B
:102BD00000120C5B80A3900000120C43EF4E7005B6
:102BE0007F031244407B007A4079047D007C01120F
:102BF00044729040047407F0904006E4F09040085E
:102C00007448F0904004E4F0904009E4F0904001F2
:102C10007402F02290005DEFF090005E120C7C7B5D
:102C2000007A007900C003C002C00190005E120C5F
:102C300073D082D083D0E06B7008E965827003EABC
:102C400065837003022CF290005DE0FFEFD39400E7
:102C50005003022CF290005DE0FFEFC394094003A3
:102C6000022CF290005DE0FF1235F2900061E0FC72
:102C7000A3E0FDD3ED9FEC9E400A90005DE0FF12C3
:102C800035F28008900061E0FEA3E0FF900061EE65
:102C9000F0A3EFF0900063E4F0A3E4F0900061E0B3
:102CA000FEA3E0FF900063E0FCA3E0FDC3ED9FEC1A
:102CB0009E503590005DE0FF75F010EF9060781247
:102CC0000C67E0FF90005E120C73900063E0FCA3C1
:102CD000E0FDE92DF9EA3CFAEF120A29900063E4DD
:102CE00075F001120A3B80B490005DE0FF123CE7F2
:102CF0008008900061E4F0A3E4F0900061E0FEA39E
:102D0000E0FF2275930078007583467582E8E04401
:102D100001F0009046ECE0F99046FAE0FAB903229F
:102D20005420B40012B8001AEA901FFFF07401900A
:102D30001FFEF09046F6F0901FFEE06005901FFF2A
:102D4000E0FA90480074C0F075812190000078008E
:102D50007920E4F0A3D8FCD9FAEA9001D6F0020079
:102D600011750D1F750EFD123ED3122221022DABDF
:102D70000216BAE493A3F8E493A34003F68001F2A9
:102D800008DFF48029E493A3F85407240CC8C33364
:102D9000C4540F4420C8834004F456800146F6DF33
:102DA000E4800B0102040810204080903775E47E17
:102DB000019360BCA3FF543F30E509541FFEE49328
:102DC000A360010ECF54C025E060A840B8E493A3EF
:102DD000FAE493A3F8E493A3C8C582C8CAC583CA1A
:102DE000F0A3C8C582C8CAC583CADFE9DEE780BED2
:102DF000900059EFF090005AEDF090005BE4F090F5
:102E0000005BE0FFEFC39402501A90005BE0FF7498
:102E1000DB2FF582E43401F5837401F090005BE070
:102E200004F080DB900059E0FF900124EFF0900166
:102E300023E4F090011CE4F09000A6E4F090011867
:102E4000E4F090011FE4F09000A5E4F0900119E493
:102E5000F09044C27480F09044C37401F09044C276
:102E60007420F09044C07401F09044C07402F0905B
:102E700044C07404F090005AE0FFEF120CB12E88A9
:102E8000002E950100002EA2906009E0FFEF54FE95
:102E9000FFEFF08018906009E0FFEF4401FFEFF0D2
:102EA000800B906009E0FFEF4401FFEFF090602895
:102EB0007403F09060087480F07F017E007D007CD8
:102EC000001240009060127404F02290008DE4F033
:102ED000906004E0FFEF547FFF90008EEFF09000D1
:102EE0008EE0FFEFD394005003022F9290008EE00B
:102EF000FFEFC394094003022F9290008EE0FFEF92
:102F000075F00BA424ADF582E43400F583E0FFEF07
:102F10004401FFEFF090008EE0FFEF75F00BA4246A
:102F2000AEF582E43400F583E4F090008EE0FFEF2C
:102F300075F00BA424ACF582E43400F583E0FFEFD8
:102F40004402FFEFF090008EE0FFEF75F00BA42439
:102F5000AFF582E43400F583E0FFEF5480FF7E009C
:102F6000EF4E601490008EE0FF75F010EF905FFE62
:102F7000120C67748DF0801290008EE0FF75F010D7
:102F8000EF905FFE120C677489F012431C90008D65
:102F9000EFF090008DE0FF22900186E0FFEF75F0EA
:102FA00007A4246BF582E43401F583E0FFE4FCFD23
:102FB000FE900057120C5B900057120C43780812D9
:102FC0000BF6A804A905AA06AB07900186E0FFEF5F
:102FD00075F007A4246AF582E43401F583E0FFE488
:102FE000FCFDFE120BC5900057120C5B90005712AF
:102FF0000C437808120BF6A804A905AA06AB0790A3
:103000000186E0FFEF75F007A42469F582E434013E
:10301000F583E0FFE4FCFDFE120BC5900057120C97
:103020005B900057120C437808120BF6A804A90510
:10303000AA06AB07900186E0FFEF75F007A42468AD
:10304000F582E43401F583E0FFE4FCFDFE120BC5DC
:10305000900057120C5B900057120C432290009383
:10306000E4F0900119E0FF7E009000A8EE8FF012CE
:103070000A3B900110E0FEA3E0FFD3EF9400EE9432
:1030800000404C900093E0FFEFC394085041900142
:1030900012120C73120A10FF900093E0FEE42EF55A
:1030A00082E43460F583EFF0900112120C73E9248E
:1030B00001F9EA3400FA900112120C7C900093E0BE
:1030C00004F090011074FF75F0FF120A3B80A3908A
:1030D0000119E0FFEF6408600B900093E0FFEFD36D
:1030E0009400401C900122E0FFEF6480FF900122D9
:1030F000EFF09000A7740FF09001237402F0800CA1
:103100009000A77402F09001237402F0900093E005
:10311000FF9000AAEFF0900093E0FF900119EFF00C
:1031200022900082E4F0906029E0FFEF540FFFEF5F
:1031300024FEFF900081EFF0900081E0FF7E009080
:1031400000A8EE8FF0120A3B900110E0FEA3E0FF12
:10315000D3EF9400EE94004052900081E0FFEFD353
:1031600094004047900082E0FFE42FF582E4346051
:10317000F583E0FF900112120C73EF120A299001FF
:1031800012120C73E92401F9EA3400FA90011212C8
:103190000C7C900082E004F0900081E014F090013B
:1031A0001074FF75F0FF120A3B809D900081E0FFD4
:1031B0009000AAEFF0900122E0FFEF6480FF900101
:1031C00022EFF09000A7740BF022900059E4F090E9
:1031D0000186E4F0900187E4F0900188E4F090002B
:1031E00057E4F0900057E0FFEFC39402503990008D
:1031F00057E0FF74842FF582E43401F583E0FF90FB
:103200000058EFF0900058E0FFEF6013900058E096
:10321000FF7409D39F4008900058E0FF123CE790EC
:103220000057E004F080BC900182E0FFEF60319035
:103230000184E0FFEF6029900180E0FFEF602190C2
:103240000182E0FFEFC394095016900184E0FFEF84
:10325000C39409500B900180E0FFEFC3940940062E
:103260009000597401F0900059E0FF2290008DE425
:10327000F0906004E0FF90008EEFF09000A6E0FF79
:10328000EF14FF1233AC900090EEF0A3EFF090003B
:1032900090E0FEA3E0FF8F828E83A3120C85E924C9
:1032A00004F9EA3400FA120A10FF90008FEFF09050
:1032B000008FE0FF90008EE0FEEED39F400B900069
:1032C0008EE0FFEFD39402503E90008EE0FF740E2C
:1032D0002FF582E43401F583E0FF90008EE0FE7468
:1032E0001D2EF582E43401F583EFF0906002E0FFDB
:1032F00090008EE0FE740E2EF582E43401F583EF2B
:10330000F090008D7401F090008DE0FF229000A6F7
:10331000E0FFEF14FF1233AC90009CEEF0A3EFF04F
:1033200090009CE0FEA3E0FFEF4E606F90009CE0F9
:10333000FEA3E0FF8F828E83A3120C85E92404F99B
:10334000EA3400FA120A10FF9000A0EFF09000A0FB
:10335000E0FF7E00EF2402FFEE3400FEEF7802C3B0
:1033600033CE33CED8F9FF90009CE0FCA3E0FDEF14
:103370002DFFEE3CFE90009CEEF0A3EFF090009C41
:10338000E0FEA3E0FF8F828E83A3120C85AE02AF16
:103390000190009EEEF0A3EFF0800890009EE4F014
:1033A000A3E4F090009EE0FEA3E0FF229000A1EFD6
:1033B000F0900124E0FFEF25E025E0240AF582E407
:1033C0003446F583120C85AE02AF019000A2EEF0F8
:1033D000A3EFF09000A2E0FEA3E0FFEF2408FFEED1
:1033E0003400FE9000A2EEF0A3EFF09000A2E0FE09
:1033F000A3E0FF8F828E83E493FF9000A1E0FEEEB6
:10340000C39F400A9000A2E4F0A3E4F08030900053
:10341000A2E0FEA3E0FF8F828E83C083C082900073
:10342000A1E0FFD082D08375F004EF120C67A312E5
:103430000C85AE02AF019000A2EEF0A3EFF0900079
:10344000A2E0FEA3E0FF22906000E0FFEF5403FF44
:10345000EF120CB1345E01346A020000348A9060CD
:1034600004E0FF90008EEFF08025906004E0FFEF15
:10347000547FFFEF75F00BA424B5F582E43400F51A
:1034800083E0FF90008EEFF0800590008EE4F090D6
:10349000008EE0FF90011AE0FCA3E0FD8D828C839A
:1034A000E5822FF582E43583F583E493FFEF120C78
:1034B000B134C50234BB03000034CF12147E900037
:1034C0008DEFF0800F12292790008DEFF08005908E
:1034D000008DE4F090008DE0FF22900057120C7CEC
:1034E00090005AECF0A3EDF0900186E0FF74822F7B
:1034F000F582E43401F583E0FF90005CEFF090008A
:103500005CE0FFEF75F00BA424B3F582E43400F522
:1035100083E0FEA3E0FF90005AE0FCA3E0FDD3EDC2
:103520009FEC9E402590005CE0FFEF75F00BA4241B
:10353000B3F582E43400F583E0FEA3E0FF90005A87
:10354000EEF0A3EFF07F0012442B90005CE0FF90C0
:103550000057120C7390005AE0FCA3E0FD9000614C
:10356000ECF0A3EDF0121C5B22906028E0FF9000CD
:1035700081EFF0900081E0FF906028EFF0906028EC
:10358000E0FF900081EFF0900081E0FFEF5480FFBA
:103590007E00EF4E600B900081E0FF9000A7EFF0FF
:1035A000227F02123A5D906000E0FFEF5460FFEF6F
:1035B000120CB135C00035CA2035D440000035DECC
:1035C00012001A900081EFF08019123447900081A8
:1035D000EFF0800F123F21900081EFF08005900006
:1035E00081E4F0900081E0FFEF70069000A7740383
:1035F000F022900065EFF0900066E4F0A3E4F09014
:103600000065E0FFEFD394004066900065E0FFEFB7
:10361000C39409505B900065E0FF75F010EF905F78
:10362000FC120C67E0FF7E007E00EF540FFF90005D
:1036300066EEF0A3EFF0900065E0FF75F010EF90FC
:103640005FFD120C67E0FFEFFD7C00900066E0FE7E
:10365000A3E0FFEF7F00FEEE4CFEEF4DFF90006613
:10366000EEF0A3EFF090006674FF75F0FE120A3BD7
:10367000900066E0FEA3E0FF2290005AEFF0900079
:103680005BECF0A3EDF090005AE0FFEFD3941F50F5
:1036900003D38001C340057F0012442B90005AE001
:1036A000FFEF541FFF7E00EF25E0FFEE33FEEF2417
:1036B00000FFEE3444FEAA06A9077B011244659080
:1036C000005DEEF0A3EFF090005AE0FF7E02EF8E77
:1036D000F0A4FFAEF0EF2400FFEE3444FEAA06A9EA
:1036E000077B0190005BE0FEA3E0FFAD07AC061294
:1036F000447490005DE0FEA3E0FF227F287E007D01
:10370000007C001239F77F0312404B7F057E007D5D
:10371000007C001239F77F0312404B7F0F7E007D43
:10372000007C001239F77F0312404B7F017E007D41
:10373000007C001239F77F0212404B7F057E007D2E
:10374000007C001239F77F061240947F0E124094DD
:103750007F2C1240947F081240947F011240947F86
:103760000C1240947F031240947F057E007D007C04
:10377000001239F7224F01B3FF3C33FF3C38FF3CC6
:103780003CFF3C41FF3C464901C2FF3C4CFF3C4EE4
:10379000FF3C524101EC004E016800C201000000F4
:1037A0000800C201000000084A0176A120000000C4
:1037B0000002000000410186004101E7004101E6EE
:1037C000004101D5004401D103D090004401CC0058
:1037D00000FA004101D0404401D77D0000004301C0
:1037E000E10000004101ED0000900091EFF0900039
:1037F00092E4F090009374FFF0900092E0FFEFC32A
:103800009402504C900092E0FF74802FF582E434D3
:1038100001F583E0FF900094EFF0900094E0FFEF5B
:1038200075F00BA424B5F582E43400F583E0FF9035
:103830000091E0FEEFB50610900092E0FF9000933B
:10384000EFF09000927402F0900092E004F080A9F2
:10385000900093E0FF22900110E0FEA3E0FFEF4E06
:1038600070051242C780589001237402F090012223
:10387000E4F0123F6F906007E0FF7E00EF7F00FEF4
:10388000906006E0FD7C00EE4CFEEF4DFF90009155
:10389000EEF0A3EFF0900091E0FEA3E0FF900110A6
:1038A000E0FCA3E0FDD3ED9FEC9E4010900091E082
:1038B000FEA3E0FF900110EEF0A3EFF012305D7F69
:1038C0000122C0E0C083C082C085C084C0867586E6
:1038D00000C093759300C0D075D000C006C007909B
:1038E000600BE0FFEF54FEFFEFF090600EE0FF9002
:1038F00000B6E0FFEF5403FF7E00EF64014E600E60
:103900009000B9E0FFEF6480FF9000B9EFF0900005
:10391000B77401F0D007D006D0D0D093D086D08431
:10392000D085D082D083D0E032C0E0C083C082C0D6
:1039300085C084C086758600C093759300C0D0751D
:10394000D000C006C00790600BE0FFEF54FDFFEF12
:10395000F090601EE0FF9000C1E0FFEF5403FF7E97
:1039600000EF64014E600E9000C4E0FFEF6480FF42
:103970009000C4EFF09000C27401F0D007D006D0E0
:10398000D0D093D086D084D085D082D083D0E0327E
:10399000C0E0C083C082C085C084C086758600C078
:1039A00093759300C0D075D000C006C00790600B1F
:1039B000E0FFEF54FBFFEFF090602EE0FF9000CCB3
:1039C000E0FFEF5403FF7E00EF64014E600E9000B5
:1039D000CFE0FFEF6480FF9000CFEFF09000CD7458
:1039E00001F0D007D006D0D0D093D086D084D08537
:1039F000D082D083D0E03290FFFC120CD7120C5B47
:103A0000850D83850E82120C43D3EF9400EE9480D3
:103A1000402F9001D7120C43124000850D83850E74
:103A200082C083C082120C43EF2400FFEE3480FE7C
:103A3000ED34FFFDEC34FFFCD082D083120C5B80B0
:103A4000BF9001CC120C43850D83850E82120C4F62
:103A5000120AA8124000900004120CD72290008293
:103A6000EFF07B007A007900C003C002C001900132
:103A700015120C73D082D083D0E06B7008E9658298
:103A80007003EA65836037900082E0FF90011512B1
:103A90000C73EF120A299000A8E0FEA3E0FF90014A
:103AA00015120C73E92401F9EA3400FAEE8FF012D2
:103AB0000A7C7B007A007900900115120C7C229020
:103AC00001237404F09001227480F0123F6F906023
:103AD00007E0FF7E00EF7F00FE906006E0FD7C00C7
:103AE000EE4CFEEF4DFF900091EEF0A3EFF0900052
:103AF00091E0FEA3E0FF900110E0FCA3E0FDD3ED18
:103B00009FEC9E4010900091E0FEA3E0FF9001101A
:103B1000EEF0A3EFF09000A7740BF07F012290006D
:103B20005AEFF090005BEDF090005BE0FFEFD39474
:103B3000075003D38001C340057F0012442B90003F
:103B40005AE0FFEFD3941F5003D38001C340057F99
:103B50000012442B90005BE0FFEF5407FF7E00EF64
:103B600075F020A4FFAEF090005AE0FEEE541FFE68
:103B700074802EF582E43444F583EFF022900057F0
:103B8000120C7C900186E0FF74842FF582E43401EE
:103B9000F583E0FF90005AEFF090005AE0FF9000AC
:103BA00057120C7390005AE0FEEE75F00BA424B38C
:103BB000F582E43400F583E0FCA3E0FD900061ECC5
:103BC000F0A3EDF0122C1490005BEEF0A3EFF09058
:103BD000005BE0FEA3E0FF2290005EEFF09051203A
:103BE000E0FFEF4420FFEFF0905120E0FFEF54BFE3
:103BF000FFEFF07F007E00124190905120E0FFEF38
:103C000054F0FFEFF0905120C083C082E0FF90009D
:103C10005EE0FEEE4410FEEF4EFFD082D083EFF068
:103C20007F017E00124190905120E0FFEF54EFFFA2
:103C3000EFF0224E6F6E65004F6464004576656E4E
:103C4000004D61726B005370616365003100312E6D
:103C50003500320042523A25346C642025642563D5
:103C6000257300202020202020202020202020201C
:103C700020202020202020004454523A25732C522A
:103C800054533A2573004F4E004F4646009000A40F
:103C9000E4F09000A4E0FFEFC39402501A9000A457
:103CA000E0FF74DB2FF582E43401F5837401F090BA
:103CB00000A4E004F080DB900123E4F090011CE418
:103CC000F09000A6E4F0900118E4F090011FE4F0F9
:103CD0009000A5E4F0900119E4F09060287403F0DE
:103CE0009060087480F022900065EFF0900065E02D
:103CF000FFEFD394004046900065E0FFEFC39409C6
:103D0000503B900065E0FFEF75F00BA424ACF5820A
:103D1000E43400F583E4F0900065E0FFEF75F00B0C
:103D2000A424B0F582E43400F583E0FF900065E060
:103D3000FE75F010EE905FFE120C67EFF02290001F
:103D400057EFF0900058EDF0900057E0FFEF120CA5
:103D5000B13D61003D6E013D7B023D880300003DA9
:103D600094900058E0FFEF2480FF124094229000CE
:103D700058E0FFEF24C0FF12409422900058E0FF6B
:103D8000EF2494FF12409422900058E0FFEF24D4D7
:103D9000FF12409422C0E0C0F0C083C082C085C042
:103DA00084C086758600C093759300C0D075D0001E
:103DB000C000C001C002C003C004C005C006C007E7
:103DC000123C8DD007D006D005D004D003D002D04D
:103DD00001D000D0D0D093D086D084D085D082D0EE
:103DE00083D0F0D0E032C0E0C0F0C083C082C08594
:103DF000C084C086758600C093759300C0D075D00E
:103E000000C000C001C002C003C004C005C006C09D
:103E10000712437ED007D006D005D004D003D002CD
:103E2000D001D000D0D0D093D086D084D085D0829D
:103E3000D083D0F0D0E032900057E4F0900123E03E
:103E4000FFEF703B900186E0FF74872FF582E4342A
:103E500001F583E0FFEF6027900186E0FF74872F74
:103E6000F582E43401F583E0FF900057EFF0900114
:103E700086E0FF74872FF582E43401F583E4F09047
:103E80000057E0FF22900057120C7C90005A7401FA
:103E9000F0900057120C73120A10FF90005BEFF0C5
:103EA00090005BE0FFEF602A90005BE0FF123FBCF8
:103EB000900057120C7390005AE0FFE92FF9E43A92
:103EC000FA120A10FF90005BEFF090005AE004F045
:103ED00080CE22900000E4F0900000E0FFEFD39449
:103EE0001F503D900000E0FF7E02EF8EF0A4FFAE79
:103EF000F0EF2400FFEE3444FEAA06A9077B01C0C0
:103F000003C002C0017BFF7A4479A3AC02AD01D0AB
:103F100001D002D003124474900000E004F080B895
:103F200022900082E4F0906000E0FFEF5480FF7E7A
:103F300000EF4E6034906001E0FFEF120CB13F459E
:103F40000100003F697BFF7A46791F900112120C35
:103F50007C90461FE493FF7E00900110EEF0A3EFEB
:103F6000F0123856900082EFF0900082E0FF22902D
:103F700000A8E4F0A3E4F07B007A007900C003C05D
:103F800002C001900115120C73D082D083D0E06B77
:103F90007008E965827003EA6583601F900115125D
:103FA0000C73E4120A29900115120C73E92401F92B
:103FB000EA3400FAE475F000120A7C2290005CEF0B
:103FC000F0121DE090005CE0FFEFC4540FFF900082
:103FD0005DEFF090005DE0FF123BD890005CE0FFE9
:103FE000EF540FFF90005DEFF090005DE0FF123B9B
:0F3FF000D8227F0C1240949001E77401F0223226
:10400000EC4D4E700D78FCEF24E950032840FD2262
:10401000000078C5904800E0C40303540390404773
:104020009325E0240FF404FBEF28FF78FFEE38FE21
:10403000ED38FDEC38FC50D7EF2BFFEE38FEED38B5
:10404000FDEC38FC40F2220502030490005BEFF027
:10405000905120E0FFEF549FFFEFF0905120E0FFE0
:10406000EF54F0FFEFF0905120C083C082E0FF904A
:10407000005BE0FEEE4410FEEF4EFFD082D083EFF7
:10408000F07F017E00124190905120E0FFEF54EF4D
:10409000FFEFF022900059EFF0121DE0900059E080
:1040A000FFEFC4540FFF90005AEFF090005AE0FF6A
:1040B00012404B900059E0FFEF540FFF90005AEF71
:1040C000F090005AE0FF12404B227B0C7A0179CF2E
:1040D000124481900000EFF0900000E0FFEF5407E1
:1040E000FF90586EEFF0900000E0FFEFC4540FFF18
:1040F000EF540FFF90586FEFF09058767444F02211
:10410000758600EF4E6027EF60010E7593009000FA
:1041100005E0F595A3E0F585A3E0F5848B938A830C
:104120008982E0A30586F0A31586DFF6DEF4E4F5C8
:1041300093F59522ACEAADA08E838F82E493F9606B
:104140001CA3E493F5EAA3E493F5A0A3E49360F140
:10415000FAA3E493F8A3E493F2DAF6D9E48DA08C01
:10416000EA22900123E0FFEF120CB1418E00417B67
:1041700002417F044183060000418E1242A62212B2
:0F4180003121227F03123A5D9000A77403F022D1
:10419000EEFA9001D0E0F88FF0A4FFAEF0E88AF0DC
:1041A000A42EFEE5F03400FDEF24C9FF78FFEE38C1
:1041B000FEED38FDE438FC50030240002290011F60
:1041C000E0FFEF601390011FE0FFEF4480FF90607D
:1041D00008EFF090011FE4F0900123E4F07F01125A
:1041E0003A5D9000A77403F022900057EFF0900022
:1041F00058EDF09001ECE0FFEF70091227029001FA
:10420000EC7401F0900057E0FF900058E0FD122D93
:10421000F022EFB40A07740D12421D740A3098118F
:10422000A899B8130CC2983098FDA899C298B811F3
:10423000F63099FDC299F59922758600EF4E601B04
:10424000EF60010E8C838D828B958A858984E4933F
:10425000A30586F0A31586DFF5DEF3E4F59522903D
:104260000123E0FFEF120CB1428300427802427C4E
:10427000044280060000428312449F2212445222CC
:104280001241BD22900057E4F090011CE0FFEF6066
:104290000F90011CE0FF900057EFF090011CE4F03C
:1042A000900057E0FF22900119E0FF7E009000A8E7
:1042B000EE8FF0120A3B900123E4F07F01123A5D89
:1042C0009000A77403F0229001237402F090012261
:1042D0007480F09000A7740FF0900119E4F0900042
:1042E000AAE4F07F0122900057EFF0900057E0FF22
:1042F000EF75F00BA424ACF582E43400F583E0FF05
:1043000022900124E0FFEF25E025E0240AF582E475
:104310003446F583120C85AE02AF0122900123745E
:1043200006F09000A77406F09001227480F09000CF
:10433000AAE4F07F0122EC4D6011ED60010C8B933B
:104340008A838982E4F0A3DDFCDCFA75930022EF16
:1043500054016004D2AF8002C2AFEF5402FF904418
:10436000F4E054FD4FF022900186E0FFEF25E024B9
:1043700089F582E43401F583E0FEA3E0FF22904555
:104380008FE0FFEF5440FF7E00EF7806CEC313CEE0
:1043900013D8F9FF22900186E0FFEF75F007A424FF
:1043A0006CF582E43401F583E0FF22900186E0FFA2
:1043B000EF75F007A4246DF582E43401F583E0FF86
:1043C00022900186E0FFEF75F007A4246EF582E4E9
:1043D0003401F583E0FF22900186E0FF74842FF51D
:1043E00082E43401F583E0FF1242E622900186E088
:1043F000FF74822FF582E43401F583E0FF1242E678
:10440000229001E6E0FFEF70091236FB9001E6749E
:1044100001F0123FF2229044F4E0F84402F0E85434
:1044200002FF10AF012274014FFF2290FFFF120C18
:10443000D7EFF09046EA7401F0900001120CD722F9
:10444000900005EFF0900005E0FF900005EFF08090
:10445000FE22900123E4F07F01123A5D9000A774E0
:1044600003F0228B938A838982E0FFA3E0FE759399
:1044700000228B938A838982EDF0A3ECF075930080
:10448000228B938A838982E0759300FF228B938A23
:10449000838982EDF0759300229000A6E0FF22123E
:1044A000305D2280FE321201000202000008B404D6
:1044B00032F201000104800109024300020101807F
:1044C0003209040000010202000205240010010468
:1044D00024020205240600010524010001070581CC
:1044E0000308000A09040100020A0000030705820C
:1044F0000240000007050302400000040309042CE9
:10450000034300790070007200650073007300209F
:1045100000530065006D00690063006F006E006469
:10452000007500630074006F00720038034300449C
:10453000004300200043006F006D006D0075006EA9
:1045400000690063006100740069006F006E002064
:104550000049006E0074006500720066006100632F
:10456000006500260343004400430020004400612E
:104570000074006100200049006E00740065007244
:10458000006600610063006500100355005300429F
:1045900000550041005200540000020332000501A2
:1045A0000902A1010901A10005091901290315004A
:1045B00025019503750181029501750581010501AC
:1045C000093009311581257F750895028106C0C023
:1045D0000000000081030008020100820200400A7E
:1045E0000100030200400A020A01FF44B803FF452C
:1045F000D2000000000000000000FF45E701FF447A
:10460000A60000000001FF45E901FF45FD12034D32
:1046100000530046005400310030003000010028F3
:104620000000000001040001000000000000000084
:104630000143595553420000003030303031000002
:104640000000000000000005001001400000000014
:10465000000000C0000004000000000000007F7F98
:1046600000000000000C0045017E020052017C4069
:10467000011702EA02EE0A011902EA02EE0A0140FB
:104680000333813640CC700141039F01A640A780CF
:104690000142039F01A640A7800143039F01A6405A
:1046A000A78001470408080B040F40C20E0148040C
:1046B000AE40AF81EA40EE50014C02AC08AF44017D
:1046C0005101002A005100001000513000400051FB
:1046D000C00010010000100001140008000140009B
:1046E0000A00014C0002000150000020303132333A
:0D46F00034353637383941424344454600E1
:00000001FF
