:400000000080002011000000190200001902000008B5044B1A6803F53F5302331A6000F015F900BFFA46004010B5054C237833B9044B13B10448AFF300800123237010BD33
:400040008881FF1F0000000084190000084B10B51BB108480849AFF300800848036803B910BD074B002BFBD0BDE81040184700BF00000000841900008C81FF1F0881FF1F07
:400080000000000008B500F029FB202000F034FB012000F067FB00F053FB00F08DFB202000F02AFB012000F05DFB00F0C7FE00F073FE00F07FFE00F073FD00F085FD00F0E4
:4000C000EFFD00F00FFE012000F096FB08BD00BF08B500F05FFB044800F05CFB00F048FB10F0010FFAD008BD8819000010B50346044C20460821044A01F02CF82046FFF738
:40010000E7FF10BDC481FF1F8C19000008B500F0A3FE08BD10B504460020FFF7F7FF04F01F0000F01BFE00F02BFE0028FBD0FF2000F014FE00F01EFE064B1870FFF7D6FFDD
:4001400000F018FE0446FFF7D1FF0120FFF7DEFF204610BDCD81FF1F38B504460D460020FFF7D4FF04F01F0040F0200000F0F6FD00F0E8FD10F0010FFAD0284600F0EEFD25
:4001800001E000F009FE00F0DDFD10F0010FF8D00120FFF7BBFF38BD10B500F0B3FA10F0200FFAD000F0B6FA114C20701148FFF78FFF0020FFF7AEFF0F48FFF789FF002082
:4001C0000921FFF7C9FF0D48FFF782FF0020FFF7A1FF0B48FFF77CFF207800F0CFFA0948FFF776FF00F0C4FA10F0010FFAD010BDCC81FF1F901900009C190000A8190000E5
:40020000BC190000B819000008B562B6FFF73AFFFFF7C2FFFCE700BFFEE700BF08B5094B1A681044084BC31A802B02DC054B186005E000F04FFF0C2303604FF0FF32104634
:4002400008BD00BF0C81FF1FE081FF1F08B5104E104D16E029686B68AC68002204E051F8040B43F8040B0432A242F8D1E868002203E0002143F8041B04328242F9D1103586
:40028000013E002EE6D100F02BFFFFF7BDFFFEE7010000007C1A000008B5124A124B1A60124A136843F40073136000230AE0032B03D80F4A52F8231000E00E490E4A42F839
:4002C000231001332F2BF2D90C4B1A780C4B1A70094A0C4B1A6000F0FBF800220A4B1A6008BD00BF0004FA050CED00E014ED00E000000000190200000080FF1FBC76004044
:400300000481FF1F08ED00E00081FF1FFEE700BFF0B40022174611E050F82760F3B226F0FF0608E001EB420511F812406D78A5550132013BDBB2002BF4D101371D2FEBD9D6
:40034000F0BC70470C4B1B78DBB203F007010B4A11701B090132137048F24002084B1A80012203F677131A7080227D331A704422A3F28A231A707047CF0100496E5800407B
:400380000C51004008B50A46002100F0DAFE08BD08B500F0CBFE08BD38B50024324B1C80502202331A700B2202331A8018232F4A13704FF49C7102321180023213702C48DC
:4003C0002C490422FFF7E4FF02222B4B1A7008224FF040231A70032103F500731970274B1B78DBB226490B70264B1A8041F25122023B1A8019250CE0234B1B7803F00103D1
:4004000043EA440404F003044FF4F07000F0F0F8013D0DB1032CEFD115B90320FFF776FF1A4B4FF480721A8007221A70002218490A704820023108701A700222033B1A701D
:4004400004220A331A70134A137843F007031370013A137843F001031370013A137843F08003137038BD00BF804000408640004000410040B8050048004300400801004953
:40048000A146004022420040254200400440004006400040A2430040012807D8044B53F820201844017A13780B431370704700BFC4190000012808D8044B53F820201844F4
:4004C000017A137823EA010313707047C419000038B572B6364A137843F00403137000240AE0344963001A1952000A44D068118AFFF748FF0134E4B2092CF2D9002410E041
:400500002C49A3001A1952000A4452F8480F23445B000B445168B3F85020FFF739FF0134E4B2012CECD94FF090402349FFF7F0FE0A25224B1D70224A137843F00203137025
:400540001032137843F0020313701E4C237843F040032370A2F58632513A137843F010031370194819490822FFF712FF184819492A46FFF70DFF184818490822FFF708FFA7
:40058000174A137843F008031370164D61232B70FFF702FF81232B700122134B1A70FFF7D1FE124821460E22FFF7F2FE38BD00BFE8460040C4190000780000488358004055
:4005C00003500140A0430040025100409C05004810510040A405004822510040B0050048224300400048004004000840B04300400230800803D000BF01380046FCD170478B
:40060000EFF3108072B6704780F31088704700BF01BE704708B5034B1B7A03FB00F0FFF7E7FF08BD1081FF1F70B504460E46074B1D681F2802D90020FFF7EAFF04F01F04C2
:40064000103455F8240045F8246070BD08ED00E038B504460D46072902D90020FFF7D8FF1F2C02D90020FFF7D3FF04F01F0000F1604000F564406D01EDB2057038BD00BFFF
:400680007222074B1A702022013B1A700622613B1A70472210331A700022AE3B1A7070478A65004010B5FFF7ABFF04460A4A137843F020031370013A137843F010031370CD
:4006C000FF3A137843F01003137000F087F82046FFF79AFF10BD00BF9A65004008B5054B1B7823B9FFF7CCFF0122024B1A70FFF7D9FF08BDA481FF1F014B1870704700BFE7
:4007000089650040024B187800F07F00704700BF69650040084B1B78DBB213F0200F06D0064A1078C0B213F01E0F02D17047002070470020704700BF696500404A650040D2
:4007400008B5FFF75DFF064B1A7842F001021A701A7802F0FE021A70FFF756FF08BD00BF9A650040014B1870704700BF8A640040014B1878704700BF6A640040034B1B78F3
:4007800013F0040FFAD1024B187070476A6400404A64004038B5074B1B782BB938BDFFF7EDFF0134A4B201E005460024285D0028F5D138BDA481FF1F08B5FFF721FF064B99
:4007C0001A7842F001021A701A7802F0FE021A70FFF71AFF08BD00BF9A640040054A137843F0040313701032137843F004031370704700BFA2430040044A137803F0FD0341
:40080000400000F002001843107070472051004010B59DF80840012C4AD10138092826D8DFE800F00525250525250D15251D0F2B02D9214800781BE02048007818E00F2B35
:4008400002D91F48007813E01E48007810E00F2B02D91D4800780BE01C48007808E00F2B02D91B48007803E01A48007800E0002040B201EB401101FB02F1C90B8AB20D2B49
:400880000BD8C3F10E0289B211418AB2124901EB8401013301F8023C05E00F4B03EB84030F2103F8021C013C0B4B23F8242010BD0020FFF7ADFE10BD180100491C0100497F
:4008C000190100491D0100491A0100491E0100491B0100491F010049A881FF1FF8B50746FFF78EFE06460D4D2B7843F003032B700B4C237843F0030323700A4B1F700320EF
:40090000FFF788FE2B7803F0FC032B70237803F0FC0323703046FFF777FEF8BDF8460040F9460040925800400022314B1A7101285DD170B538222F4B1A70042202331A7046
:40094000062201331A70002401331C7001331C700F2201331A7002331C7001331C7001331C7001250A331D70142203F527631A70052601331E70162201331A7001331C70E8
:40098000442203331A70482201331A7001331D7002331D70112201331A70192201331A70972201331A705220FFF798FF5822124B1A7001331C7005331E70022201331A703D
:4009C00001331C7001331C70204600F061FA33220A4B1A602420294600F07EFA9520294600F0FEFA1D200649FFF71EFE70BD7047A881FF1F004E004094580040D081FF1F89
:400A0000D90B0000F0B583B0284D01272F70284E00247471102000F04DFA102000F0CEFA1D200721FFF714FE0422224B1A7001331C7007331C70204A137843F0180313701A
:400A40001E4B1C7003F2F5231C7001331C700A22A3F209331A7001331C7002331C70122205331A70132201331A7004331C701422A3F68C231A700097022048F66B514FF476
:400A800000420823FFF7C4FE2B7806EB830313F8022C0B4B1A702B78013B36F82320094B1A802878FFF740FF03B0F0BD2081FF1FA881FF1F96580040075B0040935800406A
:400AC0000E4E00400C4E004070B5FFF799FD06462A4B1B782A4B1A7842F001021A701A7842F010021A7010331A7842F001021A701A7842F010021A70224D2B7843F0020357
:400B00002B70214C237843F0020323701F4A137843F0030313700320FFF77CFD2B7803F0FD032B70237803F0FD032370184A137843F0060313707A22164B1A70164A137895
:400B400043F0010313701032137843F0010313700F3A137843F0010313701032137843F0010313704FF000530C4A1360A2F5C07213603046FFF748FD70BD00BF2081FF1F2C
:400B8000AA430040F8460040F9460040915800407758004082580040A143004080E200E008B5084B9B794BB9064BDB7913F0FF0F01D1FFF727FF0122024B9A71FFF784FF93
:400BC00008BD00BFA881FF1F024A137843F0010313707047004E0040704700BF054A137843F0010313701032137843F001031370704700BFA8430040054A137803F0FE0354
:400C000013701032137803F0FE031370704700BFA8430040054B1A7802F0FD021A701A7800F0020010431870704700BF20580040014B1870704700BF805B0040064B1B7819
:400C4000C3F3810303F19243063393F82031DBB2024A1370704700BF205800400846004008B5064B1A7802F0F3021A701A7800F00C0010431870FFF7E1FF08BD2058004077
:400C800010B50024054B1C7001331C700420FFF7E7FF2046FFF7BEFF10BD00BF2058004008B5074B1B7823B9FFF7EAFF0122044B1A70FFF793FF6420FFF7BAFF08BD00BFBA
:400CC000B081FF1F044B1B7813F0200F03D1034B1A78034B5A70704721580040805B0040B481FF1F08B5084B1B7813F0010F03D00122064B1A7002E00022044B1A70FFF78D
:400D00007BFFFFF7DFFF08BDA8430040B481FF1F08B5FFF775FC0A4A137843F02003137002F58072137843F010031370FD3A137843F010031370FFF767FC00F0BDF908BDBA
:400D400098640040014B1878704700BF68650040014B1878704700BF6B640040034B1B7813F0040FFAD0024B187070476865004048640040014B1878704700BF58640040E3
:400D8000044B1B7813F0200F01D0012070470020704700BF6B64004001E0044B1B78044B1B7813F0200FF8D1704700BF586400406B64004008B5FFF723FC064B1A7842F0C9
:400DC00001021A701A7802F0FE021A70FFF71CFC08BD00BF9864004008B501E00A4B1B780A4B1B7813F0200FF8D1FFF709FC084B1A7842F001021A701A7802F0FE021A7074
:400E0000FFF702FC08BD00BF586400406B6400409864004008B50F22064B1A70FFF7DCFFFFF790FFFFF794FF0023034A1370FD3A137008BD886400408865004008B5054B73
:400E40001B7823B9FFF7E6FF0122024B1A70FFF75FFF08BDB881FF1F044A137803F07F03C001C0B203431370704700BF2051004010B5002404E02046FFF71CFB0134E4B242
:400E8000012CF8D9FF22014B1A7010BD2181FF1F10B50446FFF7ECFF2046FFF7FDFA014B1C7010BD2181FF1F014B188880B2704780400040034B1A7800F0F8001043187090
:400EC000704700BF82400040024B187800F00700704700BF8240004070B505460E46FFF7F3FF0446FFF7E0FF854256D02B4B1B7803F0010294B900B185B938B9284B1D803A
:400F0000284A137803F0BF03137070BD254A137843F040031370224B1D8070BD22B3002321490B7001240F310C7004310B700C390B7803F07F030B701A4B1B7813F0080FED
:400F400000D08DB9194B18800721013B1970164B1B7813F0010FFAD110490B7803F0FE030B700021104B19700C4B1B7813F0010F0DD00E4B1D800EB1032200E001220A4B44
:400F80001A70094B1B7813F0010FFAD170BD044B1D8002490B7813430B7070BDA243004080400040824000400140004002400040014B188880B2704700410040034B1A789D
:400FC00000F0F80010431870704700BF02410040024B187800F00700704700BF0241004070B505460E46FFF7F3FF0446FFF7E0FF854256D02B4B1B7803F0010294B900B1B3
:4010000085B938B9284B1D80284A137803F0BF03137070BD254A137843F040031370224B1D8070BD22B3002321490B70012413310C7004390B7008390B7803F07F030B70B7
:401040001A4B1B7813F0080F00D08DB9194B18800721013B1970164B1B7813F0010FFAD110490B7803F0FE030B700021104B19700C4B1B7813F0010F0DD00E4B1D800EB1AE
:40108000032200E001220A4B1A70094B1B7813F0010FFAD170BD044B1D8002490B7813430B7070BDA143004000410040024100400140004002400040054A137843F0020342
:4010C00013701032137843F002031370704700BFA2430040014B1868704700BF8481FF1F0E4B70B51E460E4C0025E41AA410A54204D056F8253098470135F8E700F0ACFCE8
:40110000084B094C1E46E41AA4100025A54204D056F8253098470135F8E770BD641A0000641A0000641A00006C1A000010B5431E0A44914204D011F8014B03F8014FF8E7B3
:4011400010BD03460244934202D003F8011BFAE7704700000CB430B5164B0C1E9DB01D6804DA8B232B604FF0FF301EE04FF40273ADF814300CBF234604F1FF33049307930B
:401180004FF6FF7302900690ADF81630284621AB02A9209A019300F069F8431CBCBF8B232B6014B1029B00221A701DB0BDE8304002B070478481FF1F2DE9F0478E68824647
:4011C000B3420C469046994640D38A8912F4906F3AD02568096902236F1A656905EB450595FBF3F57B1C4B449D4238BF1D4653050FD5294600F030FB064698B121693A46CD
:40120000FFF794FFA38923F4906343F08003A38113E02A4600F076FB064670B95046216900F0D6FA0C23CAF80030A3894FF0FF3043F04003A381BDE8F08726613E442660FC
:401240004E466561ED1BA560B14500D24E4632462068414600F0A0FAA36800209B1BA36023681E442660BDE8F08700002DE9F0439DB003938B8906461C060D4690460CD56F
:401280000B6953B9402100F0E7FA2860286110B90C233360CCE040236B610023099320238DF8293030238DF82A3043461C4613F8012B1AB9B4EB08090FD002E0252AF5D178
:4012C000F8E73046294642464B46FFF775FF013000F0A980099B4B4409932378002B00F0A28000234FF0FF3204930793059206938DF853301A9304F101084446DFF84891D5
:4013000021784846052200F039FA08F10108049B30B1C9EB00000122824013430493ECE7D80644BF20228DF85320190744BF2B228DF8532022782A2A02D0079923460EE027
:40134000039A0134111D12680391002ABBBF524243F0020307920792B8BF04930AE01C4622780133303A092A03D80A2000FB0121F5E7079123782E2B1AD163782A2B0AD178
:40138000039B02341A1D1B680392002BB8BF4FF0FF3305930CE0611C00220C4623780131303B092B03D80A2000FB0232F5E70592DFF8988021784046032200F0DFF938B18B
:4013C000049AC8EB00004023834013430493013421781A48062204F101088DF8281000F0CDF988B1164B33B9039B073323F007030833039313E003AB0093304604A92A46AD
:40140000104BAFF3008007E003AB0093304604A92A460C4B00F092F8421C074603D0099B3B44099341E7AB895B0601D4099801E04FF0FF301DB0BDE8F08300BF2C1A0000FA
:4014400000000000B9110000221A0000281A00002DE9F84391461F468A680B6906469342B8BF1346C9F8003091F843200C46DDF8208012B10133C9F800302368990642BF89
:40148000D9F800300233C9F80030256815F006051CD094F843302268003318BF012392061FD5E118302081F843005A1C94F845102244023382F8431013E03046394604F198
:4014C00019020123C047013007D00135E368D9F800209B1A9D42F0DBDBE74FF0FF30BDE8F8833046394604F14302C0470130F4D02268D9F80050E36802F00602042A08BF6D
:401500005D1B2269A3680CBF25EAE57500259342C4BF9B1AED184FF00009A9450ADA3046394604F11A020123C0470130D5D009F10109F2E70020BDE8F88300002DE9FF419E
:401540000C461746227E98466E2A06460A9B01F1430100F0B08012D8632A23D00AD8002A00F0BD80582A40F0CC8084F84520DFF804E257E0642A1ED0692A1CD0C1E0732AB0
:4015800000F0B18009D86F2A2ED0702A40F0B980226842F0200222603FE0752A24D0782A3BD0AEE01A6804F14205111D1960136884F84230A9E020681A6810F0800F02D080
:4015C000101D186008E010F0400F02F10400186002D0B2F9003000E01368002B3EDA2D225B4284F8432039E020681A6810F0800F02D0101D186007E010F0400F02F1040034
:40160000186001D0138800E01368227EDFF864E16F2A0CBF08220A221CE07822DFF858E184F845202268186812F0800F00F104051D6003D1550601D5038800E00368D007AA
:4016400044BF42F0200222601BB9226822F0200222601022002084F8430002E0DFF814E10A226568002DA8BF2068A560A4BF20F00400206003B965B10D46B3FBF2F002FBFB
:4016800010331EF8033005F8013D03460028F4D100E00D46082A0BD12368DA0708D5236962689A42DEBF302305F8013C05F1FF35491B21612EE025681A6815F0800F6069BD
:4016C00003D0151D1D60136808E015F0400F02F104051D60136801D0188000E01860002323610D4616E01A68111D1960156800212846626800F042F808B1401B6060636844
:4017000004E004F1420584F8422001232361002384F84330CDF800803046214603AA3B46FFF796FE013002D14FF0FF301FE0304639462A462369C0470130F5D023689B078B
:4017400005D4E068039B9842B8BF18460FE00025E368039A9B1A9D42F3DA3046394604F119020123C0470130DED00135F0E704B0BDE8F081331A0000441A000010B5C9B2CD
:4017800002449042034605D01C7801308C42F8D1184610BD002010BD814210B501EB020301D3421E0BE09842FBD28118D21AD34204D013F8014D01F8014DF8E710BD9942AB
:4017C00004D011F8014B02F8014FF8E710BD000030B500293CD051F8042C0B1F1D49002AB8BF9B180A680C4612B95A600B6030BD93420DD219685818904201BF5A5852185F
:401800001A60426823605A6030BD994203D80A4651680029F9D1146815199D420AD11B682344D0188842136012D10868034413604B680CE002D90C23036030BD1C6818197A
:40184000884201BF08684968001918605960536030BD00BFC081FF1F70B5CC1C24F0030408340C2C38BF0C24002C064603DA0C233360002070BD8C42F9D3204A13681046B9
:401880001946A1B10A68121B0ED40B2A03D90A608B188C501FE08B420BBF5A684A6802605A6018BF0B4616E00B464968E9E7144D2B681BB9304600F04BF828603046214610
:4018C00000F046F8421C0346D1D0C51C25F0030585420AD11C6003F10B001A1D20F00700821A0AD05142995070BD3046E91A00F02FF80130BBD02B46ECE770BDC081FF1FCE
:40190000BC81FF1FF8B5074615460E4621B91146BDE8F840FFF7A0BF1AB9FFF759FF2846F8BD00F025F8A8420ED238462946FFF793FF044650B131462A46FFF7F7FB384618
:401940003146FFF745FF01E03046F8BD2046F8BD38B5064C0023054608462360FEF75EFC431C02D1236803B12B6038BDD881FF1F51F8040C0028BEBF091851F8043CC018DA
:4019800004387047000000000A0D00002575000052656164696E672E2E2E000057726974696E672E2E2E000052656164696E6720616761696E2E2E2E000000004563686FEE
:4019C0002E2E2E00035B00402443004040000000305100404000C05100401000F05100401000000001400008800801408007001401400006801A0140800100400140000A0A
:401A0000004C01400002005001402000000801409C0400488000001A01401C05004880004300232D302B2000686C4C0065666745464700303132333435363738394142436C
:401A4000444546003031323334353637383961626364656600000000F8B500BFF8BC08BC9E4670474D00000099020000F8B500BFF8BC08BC9E46704729000000901A00007C
:401A80000881FF1F80000000580000000000000000000000E081FF1F0000E02EC05D00001800000000366E0101FF0000000000000000000000000000000000000000000040
:401AC000000000000000000000000000201A0000000000000000000000000000000000000000000000000000000000000000000000000000000000000000000000000000AC
:401B00000000000000000000000000002481FF1F000000000000000000000000000000000000000000000000000000000000000000000000000000000000000000000000E2
:401B40000000000000000000000000000000000000000000000000000000000000000000000000000000000000000000000000000000000000000000000000000000000065
:401B80000000000000000000000000000000000000000000000000000000000000000000000000000000000000000000000000000000000000000000000000000000000025
:401BC00000000000000000000000000000000000000000000000000000000000000000000000000000000000000000000000000000000000000000000000000000000000E5
:401C000000000000000000000000000000000000000000000000000000000000000000000000000000000000000000000000000000000000000000000000000000000000A4
:020000040003F7
:0200000480007A
:400000000252004002640040026500400105014009080140400901405B0A0140400B0140010D0140010F014001150140011701405118014050190140091A0140431B0140E3
:4000400003400140024101400442014001430140044401400645014006460140034701400548014001490140094C0140044D014004500140015101400C401040880F8A0F0A
:4000800089388A72E2049E01A201AE02B002B201BE04D804DC02DF010404050207090A410B800C800EA80F1010021240150117141A801B041C041D041F41251426442728A3
:4000C0002D812E08364037253E043F12451646084A014B404D064F5055085611570164806C116D016E046F1574807580946295019708988099289E119F0CA210A480A52C77
:40010000A684AE40AF10C0F0C2F1C479CAD0CCF0CEE0D0E0D230D88006150720081309040A0C0B390D0E0E081020180A1A14201322042505273A280329132A142B043010CD
:4001400032203330340F370F39803A203E0540624104450B460E470C481549FF4AFF4BFF4EF04F44500C54015604580459045A045B045C125D225F0166C06A406B02800D6C
:400180008280844285058608870A888D8D028F0D9002920D95039680970C986299099A149B069C8DA08DA48DA811AA22AC40B00FB270B480B70FB908BA0ABB80BE10BF04FD
:4001C000D440D804D904DB04DC11DD10DF010044012004220620088209400B880C800D080E480F10100812801320140815011601170419241A801C101E601F1021442540B1
:40020000260828082A08340836103708381039883A203D883E0840044121492850085340580259045A805B2063806650672079027A8083408504A608C077C2FAC4FACA06E1
:40024000CC60CE5ED005D204D60FD871E008A6088E08EC10E6010110041C062308210A160E1C11091310151419101B0C1E081F0324402603291C2B022C212D0C2E0E2F1172
:400280003060311F320F361A38023AA84003454049FF4A074BFF4C404D204EF04F0550085409580459045A045B045C225D125F01604061A8624063208302847E887E8C28F4
:4002C0008D018E129002920C940197029801A040A601AA01AC14AE22B030B102B240B40EB501B601B880BF11D418D604D804D904DB04DC02DD20DF010028030204400524A8
:4003000009010A080B200F0210061220130214011620174018081A011B0A1C401D951F1422022308248027802C012F0431803288334035293780388039023F0245084940CE
:400340004A024F02552056205A025D145E426080614063086702808087088D12911492C0930294409601970899289E40A201A304A402A520A680AD02B110B301B404B50460
:40038000B601C0E7C28EC4AFCA30CCF2CE89D040D6F1D81DE008EA02840288039C03A601B203B808BE04D804DF0100020103032A0524081409210A100B800D8010221321E9
:4003C0001620180119011A181B201D082120222928142A022B02300232403328382839013B804001432848014A0851015240590168146B0270347202732192809502960A2A
:4004000099269A209C049E409F02A002A181A30AA414A508A628B002B404B501C06FC28EC42FCA0FCC0FCE0FD00ED20CD601EC1032403580CC3096809D80818096809D8044
:40044000E22096807D088D04DE01E402080152086580C208D404D6014508860898019D80A608D00198019D80A508251082409680C820E680B510092058048404A508AC01CE
:40048000B580C202D602EC02B120B508EC08EE0100060C0610061C06000F0000600200000198000207FC38030400800004980002560209980A2110D8843800C0849A0000AA
:4004C0008013046484000000009A00000200800F7F1308E020000088000045003602500004BEF0CD3BFFFFFF2200F008040000000000022C04040404111100010000C0006D
:4005000040011011C001001140014001000000000000000000000000000000003FFF000033180C000008230002C08000034440001F0020E31CE72318000000040810000000
:40054000043C00C20C1C00E10180800010C02C380F1FC00000002820000041002305060001000EC024FFFFFF62A0F0410C00000000000213040404042222000100000000FD
:4005800000004002001030100010101200000000000000000000000000000000000000000000C00010004010100010000000000010CECE0048000000950018010000000095
:4005C00000000000000000000000000000000000000000000000000000000000000000000000000000000000000000000000000000000000000000000000000000000000FB
:4006000000000000000000000000000000000000000000000000000000000000000000000000000000000000000000000000000000000000000000000000000000000000BA
:40064000000000000000000000000000000000000000000000000000000000000000000000000000000000000000000000000000000000000000000000000000000000007A
:40068000000000000000000000000000000000000000000000000000000000000000000000000000000000000000000000000000000000000000000000000000000000003A
:0200000490006A
:0400000000004005B7
:0200000490105A
:04000000BC90ACAF55
:0200000490303A
:02000000E68395
:0200000490402A
:4000000000000000000000000000000000000000000000000000000000000000000000000000000000000000000000000000000000000000000000000000000000000000C0
:400040000000000000000000000000000000000000000000000000000000000000000000000000000000000000000000000000000000000000000000000000000000000080
:400080000000000000000000000000000000000000000000000000000000000000000000000000000000000000000000000000000000000000000000000000000000000040
:4000C0000000000000000000000000000000000000000000000000000000000000000000000000000000000000000000000000000000000000000000000000000000000000
:0200000490501A
:0C00000000012E16106900012E20F6EC05
:00000001FF